:020000040000fa
:08000000820204000000000070
:020000040000fa
:040008007c02000076
:020000040000fa
:04000c007c02000072
:020000040000fa
:040010007c0200006e
:020000040000fa
:040014007c0200006a
:020000040000fa
:040018007c02000066
:020000040000fa
:04001c007c02000062
:020000040000fa
:040020007c0200005e
:020000040000fa
:040024007c0200005a
:020000040000fa
:040028007c02000056
:020000040000fa
:04002c007c02000052
:020000040000fa
:040030007c0200004e
:020000040000fa
:040034007c0200004a
:020000040000fa
:040038007c02000046
:020000040000fa
:04003c007c02000042
:020000040000fa
:040040007c0200003e
:020000040000fa
:040044007c0200003a
:020000040000fa
:040048007c02000036
:020000040000fa
:04004c007c02000032
:020000040000fa
:040050007c0200002e
:020000040000fa
:040054007c0200002a
:020000040000fa
:040058007c02000026
:020000040000fa
:04005c007c02000022
:020000040000fa
:040060007c0200001e
:020000040000fa
:040064007c0200001a
:020000040000fa
:040068007c02000016
:020000040000fa
:04006c007c02000012
:020000040000fa
:040070007c0200000e
:020000040000fa
:040074007c0200000a
:020000040000fa
:040078007c02000006
:020000040000fa
:04007c007c02000002
:020000040000fa
:040080007c020000fe
:020000040000fa
:040084007c020000fa
:020000040000fa
:040088007c020000f6
:020000040000fa
:04008c007c020000f2
:020000040000fa
:040090007c020000ee
:020000040000fa
:040094007c020000ea
:020000040000fa
:040098007c020000e6
:020000040000fa
:04009c007c020000e2
:020000040000fa
:0400a0007c020000de
:020000040000fa
:0400a4007c020000da
:020000040000fa
:0400a8007c020000d6
:020000040000fa
:0400ac007c020000d2
:020000040000fa
:0400b0007c020000ce
:020000040000fa
:0400b4007c020000ca
:020000040000fa
:0400b8007c020000c6
:020000040000fa
:0400bc007c020000c2
:020000040000fa
:0400c0007c020000be
:020000040000fa
:0400c4007c020000ba
:020000040000fa
:0400c8007c020000b6
:020000040000fa
:0400cc007c020000b2
:020000040000fa
:0400d0007c020000ae
:020000040000fa
:0400d4007c020000aa
:020000040000fa
:0400d8007c020000a6
:020000040000fa
:0400dc007c020000a2
:020000040000fa
:0400e0007c0200009e
:020000040000fa
:0400e4007c0200009a
:020000040000fa
:0400e8007c02000096
:020000040000fa
:0400ec007c02000092
:020000040000fa
:0400f0007c0200008e
:020000040000fa
:0400f4007c0200008a
:020000040000fa
:0400f8007c02000086
:020000040000fa
:0400fc007c02000082
:020000040000fa
:040100007c0200007d
:020000040000fa
:040104007c02000079
:020000040000fa
:040108007c02000075
:020000040000fa
:04010c007c02000071
:020000040000fa
:040110007c0200006d
:020000040000fa
:040114007c02000069
:020000040000fa
:040118007c02000065
:020000040000fa
:04011c007c02000061
:020000040000fa
:040120007c0200005d
:020000040000fa
:040124007c02000059
:020000040000fa
:040128007c02000055
:020000040000fa
:04012c007c02000051
:020000040000fa
:040130007c0200004d
:020000040000fa
:040134007c02000049
:020000040000fa
:040138007c02000045
:020000040000fa
:04013c007c02000041
:020000040000fa
:040140007c0200003d
:020000040000fa
:040144007c02000039
:020000040000fa
:040148007c02000035
:020000040000fa
:04014c007c02000031
:020000040000fa
:040150007c0200002d
:020000040000fa
:040154007c02000029
:020000040000fa
:040158007c02000025
:020000040000fa
:04015c007c02000021
:020000040000fa
:040160007c0200001d
:020000040000fa
:040164007c02000019
:020000040000fa
:040168007c02000015
:020000040000fa
:04016c007c02000011
:020000040000fa
:040170007c0200000d
:020000040000fa
:040174007c02000009
:020000040000fa
:040178007c02000005
:020000040000fa
:04017c007c02000001
:020000040000fa
:040180007c020000fd
:020000040000fa
:040208007c02000074
:020000040000fa
:04020c007c02000070
:020000040000fa
:040210007c0200006c
:020000040000fa
:040214007c02000068
:020000040000fa
:040218007c02000064
:020000040000fa
:04021c007c02000060
:020000040000fa
:040220007c0200005c
:020000040000fa
:040224007c02000058
:020000040000fa
:040228007c02000054
:020000040000fa
:04022c007c02000050
:020000040000fa
:040230007c0200004c
:020000040000fa
:040234007c02000048
:020000040000fa
:040238007c02000044
:020000040000fa
:04023c007c02000040
:020000040000fa
:040240007c0200003c
:020000040000fa
:040244007c02000038
:020000040000fa
:040248007c02000034
:020000040000fa
:04024c007c02000030
:020000040000fa
:040250007c0200002c
:020000040000fa
:040254007c02000028
:020000040000fa
:040258007c02000024
:020000040000fa
:04025c007c02000020
:020000040000fa
:040260007c0200001c
:020000040000fa
:040264007c02000018
:020000040000fa
:040268007c02000014
:020000040000fa
:04026c007c02000010
:020000040000fa
:040270007c0200000c
:020000040000fa
:040274007c02000008
:020000040000fa
:040278007c02000004
:020000040000fa
:04027c007c02000000
:020000040000fa
:040280007c020000fc
:020000040000fa
:040284007c020000f8
:020000040000fa
:040288007c020000f4
:020000040000fa
:04028c007c020000f0
:020000040000fa
:040290007c020000ec
:020000040000fa
:040294007c020000e8
:020000040000fa
:040298007c020000e4
:020000040000fa
:04029c007c020000e0
:020000040000fa
:0402a0007c020000dc
:020000040000fa
:0402a4007c020000d8
:020000040000fa
:0402a8007c020000d4
:020000040000fa
:0402ac007c020000d0
:020000040000fa
:0402b0007c020000cc
:020000040000fa
:0402b4007c020000c8
:020000040000fa
:0402b8007c020000c4
:020000040000fa
:0402bc007c020000c0
:020000040000fa
:0402c0007c020000bc
:020000040000fa
:0402c4007c020000b8
:020000040000fa
:0402c8007c020000b4
:020000040000fa
:0402cc007c020000b0
:020000040000fa
:0402d0007c020000ac
:020000040000fa
:0402d4007c020000a8
:020000040000fa
:0402d8007c020000a4
:020000040000fa
:0402dc007c020000a0
:020000040000fa
:0402e0007c0200009c
:020000040000fa
:0402e4007c02000098
:020000040000fa
:0402e8007c02000094
:020000040000fa
:0402ec007c02000090
:020000040000fa
:0402f0007c0200008c
:020000040000fa
:0402f4007c02000088
:020000040000fa
:0402f8007c02000084
:020000040000fa
:0402fc007c02000080
:020000040000fa
:040300007c0200007b
:020000040000fa
:040304007c02000077
:020000040000fa
:040308007c02000073
:020000040000fa
:04030c007c0200006f
:020000040000fa
:040310007c0200006b
:020000040000fa
:040314007c02000067
:020000040000fa
:040318007c02000063
:020000040000fa
:04031c007c0200005f
:020000040000fa
:040320007c0200005b
:020000040000fa
:040324007c02000057
:020000040000fa
:040328007c02000053
:020000040000fa
:04032c007c0200004f
:020000040000fa
:040330007c0200004b
:020000040000fa
:040334007c02000047
:020000040000fa
:040338007c02000043
:020000040000fa
:04033c007c0200003f
:020000040000fa
:040340007c0200003b
:020000040000fa
:040344007c02000037
:020000040000fa
:040348007c02000033
:020000040000fa
:04034c007c0200002f
:020000040000fa
:040350007c0200002b
:020000040000fa
:040354007c02000027
:020000040000fa
:040358007c02000023
:020000040000fa
:04035c007c0200001f
:020000040000fa
:040360007c0200001b
:020000040000fa
:040364007c02000017
:020000040000fa
:040368007c02000013
:020000040000fa
:04036c007c0200000f
:020000040000fa
:040370007c0200000b
:020000040000fa
:040374007c02000007
:020000040000fa
:040378007c02000003
:020000040000fa
:04037c007c020000ff
:020000040000fa
:040380007c020000fb
:020000040000fa
:100400008a1f78008b1f7800000006009101880089
:10041000800478000000eb001a003700e2844400fa
:1004200032a0b4009905ba00e284440032a0b400be
:100430009906ba00e284440032a0b4000006eb0042
:10044000476fde00fd07b200636ce10003003a0075
:10045000ebff07000000eb000a003700606ce100d2
:1004600004003a00005deb008b05e900fdff3e0053
:10047000040037006168e100010032000086eb00f3
:100480000b00070019c7ba001905ba000e04e000f6
:1004900003003a000a00e000e0ff3a000000060016
:1004a000fe07b2009e0188008a047800f5ff37003d
:1004b000395dba008b05e9000c003200295dba00f5
:1004c0008b05e900080032000c00e00003003a0050
:1004d000e284440032a0b400f5ff370019ddba0011
:1004e0008b05e900faff3a008904e800e184440042
:1004f00032a0b400000006000040da000000fe0058
:0405000000000500f2
:020000040000fa
:100504004f802000007f2200000188000028ef00b7
:100514000228ef00f0ff2f006019880000fc2f0074
:100524004016880000ff2f00001688005e050200b8
:1005340000000000f002020000000000e2050200da
:1005440000000000ac0202000000000012060400db
:10055400000000000400200011002000c200200060
:10056400d60502000000000011002000c200200097
:10057400d60502000000000011002000c200200087
:10058400d60502000000000011002000c200200077
:10059400d60502000000000011002000c200200067
:1005a400d60502000000000011002000c200200057
:1005b400d60502000000000011002000c200200047
:1005c400d60502000000000011002000c200200037
:1005d400d60502000000000000000600040120000f
:1005e40041002000a2002000d60502000000000007
:1005f400a100200002002000d60502000000000037
:100604004100200072002000d60502000000000016
:100614007100200052002000d605020000000000f6
:100624006100200012002000d60502000000000036
:1006340061002000e2002000d60502000000000056
:1006440071002000a2002000d60502000000000076
:1006540061002000f2002000d60502000000000026
:1006640061002000e2002000d60502000000000026
:1006740004002000c100200002002000d605020072
:1006840000000000040120003100200022002000ae
:10069400d605020000000000310020000200200006
:1006a400d6050200000000003100200012002000e6
:1006b400d605020000000000310020005200200096
:1006c400d6050200000000003100200002002000d6
:1006d400d605020000000000310020007200200056
:1006e400d605020000000000310020009200200026
:1006f400d6050200000000003100200002002000a6
:10070400d605020000000000310020006200200035
:10071400d6050200000000000000060004012000cd
:100724003100200012002000d60502000000000065
:100734003100200072002000d605020000000000f5
:100744003100200002002000d60502000000000055
:10075400a100200002002000d605020000000000d5
:100764006100200032002000d605020000000000d5
:1007740061002000d2002000d60502000000000025
:1007840004002000c100200002002000d605020061
:100794000000000004012000a1002000020020004d
:1007a400d6050200000000003100200052002000a5
:1007b400d605020000000000310020005200200095
:1007c400d605020000000000a10020000200200065
:1007d400d60502000000000061002000b2002000e5
:1007e400d605020000000000610020007200200015
:1007f400d60502000000000000000600000006000c
:100804000401200041002000d2002000d60502008f
:10081400000000006100200032002000d605020024
:10082400000000004100200042002000d605020024
:100834000000000061002000f2002000d605020044
:100844000000000061002000e2002000d605020044
:10085400000000006100200012002000d605020004
:100864000000000061002000c2002000d605020044
:10087400000000006100200042002000d6050200b4
:10088400000000002100200072002000d6050200b4
:10089400000000007100200032002000d605020094
:1008a40000000000000006000401200041002000b8
:1008b400b2002000d6050200000000004100200024
:1008c40062002000d6050200000000004100200064
:1008d40032002000d60502000000000000000600df
:1008e400040120004100200032002000d60502004f
:1008f400000000006100200082002000d6050200f4
:100904000000000061002000f2002000d605020073
:10091400000000007100200072002000d6050200d3
:1009240000000000a100200002002000d605020003
:100934000000000041002000b2002000d6050200a3
:10094400000000006100200092002000d605020093
:100954000000000061002000e2002000d605020033
:10096400000000006100200072002000d605020093
:1009740000000000000006000401200041002000e7
:1009840022002000d60502000000000071002000b3
:1009940052002000d6050200000000007100200073
:1009a40022002000d60502000000000061002000a3
:1009b40072002000d6050200000000006100200043
:1009c40052002000d6050200000000007100200043
:1009d40022002000d605020000000000a100200033
:1009e40002002000d60502000000000041002000a3
:1009f400b2002000d60502000000000061002000c3
:100a040092002000d60502000000000061002000d2
:100a1400e2002000d6050200000000006100200072
:100a240072002000d605020000000000000006004d
:100a34000401200041002000a2002000d60502008d
:100a44000000000061002000f2002000d605020032
:100a54000000000061002000c2002000d605020052
:100a64000000000061002000c2002000d605020042
:100a7400000000006100200092002000d605020062
:100a8400000000006100200022002000d6050200c2
:100a9400000000006100200052002000d605020082
:100aa400000000006100200052002000d605020072
:100ab400000000000000060008060200000000001c
:100ac4000400200031002000b605020000000000f0
:100ad400fe0502000000000031002000b6050200ff
:100ae40000000000f40502000000000031002000b6
:100af400b60502000000000021002000b605020037
:100b0400000000002100200082002000d605020021
:100b1400000000000100200082002000d605020031
:100b240000000000aa0502000000000001002000ef
:100b340062002000d6050200000000000100200031
:100b4400f2002000d60502000000000000000600ac
:100b5400040020000100200012002000d60502003d
:100b6400000000000000060064168800fe05020074
:100b740000000000cca2a800fe0502000000000056
:100b8400631680008380700061168800fe050200f1
:100b940000000000cca2a900fe0502000000000035
:100ba400cc22ef0000000600b605020000000000a1
:100bb40082007800b6050200000000000000060074
:100bc400b00020000040880030c22200104088009d
:100bd4000228ed00feff3a000028ed00fcff3a0079
:100be4000000060000092000104088000228ed00e3
:100bf400feff3a000000060000602100104088005b
:100c04000228ed00feff3a000000060000f0240078
:100c1400104088000228ed00feff3a0000000600a4
:080c24001206040000000000ac
:020000040000fa
:100c2c0000080000040000000000000000000000ac
:020000040000fa
:020000040001f9
:0457f400fffc0000b6
:020000040000fa
:020000040001f9
:0457f8009f8100008d
:020000040000fa
:020000040001f9
:0457fc007f3f0000eb
:00000001FF
