:020000040000fa
:080000000002040000000000f2
:020000040000fa
:040008005a03000097
:020000040000fa
:04000c005a03000093
:020000040000fa
:040010005a0300008f
:020000040000fa
:040014005a0300008b
:020000040000fa
:040018005a03000087
:020000040000fa
:04001c005a03000083
:020000040000fa
:040020005a0300007f
:020000040000fa
:040024005a0300007b
:020000040000fa
:040028005a03000077
:020000040000fa
:04002c005a03000073
:020000040000fa
:040030005a0300006f
:020000040000fa
:040034005a0300006b
:020000040000fa
:040038005a03000067
:020000040000fa
:04003c005a03000063
:020000040000fa
:040040005a0300005f
:020000040000fa
:040044005a0300005b
:020000040000fa
:040048005a03000057
:020000040000fa
:04004c005a03000053
:020000040000fa
:040050005a0300004f
:020000040000fa
:040054005a0300004b
:020000040000fa
:040058005a03000047
:020000040000fa
:04005c005a03000043
:020000040000fa
:040060005a0300003f
:020000040000fa
:040064005a0300003b
:020000040000fa
:040068005a03000037
:020000040000fa
:04006c005a03000033
:020000040000fa
:040070005a0300002f
:020000040000fa
:04007400c8020000be
:020000040000fa
:040078005a03000027
:020000040000fa
:04007c005a03000023
:020000040000fa
:040080005a0300001f
:020000040000fa
:040084005a0300001b
:020000040000fa
:040088005a03000017
:020000040000fa
:04008c005a03000013
:020000040000fa
:040090005a0300000f
:020000040000fa
:040094005a0300000b
:020000040000fa
:040098005a03000007
:020000040000fa
:04009c005a03000003
:020000040000fa
:0400a0005a030000ff
:020000040000fa
:0400a4005a030000fb
:020000040000fa
:0400a8005a030000f7
:020000040000fa
:0400ac005a030000f3
:020000040000fa
:0400b0005a030000ef
:020000040000fa
:0400b4005a030000eb
:020000040000fa
:0400b8005a030000e7
:020000040000fa
:0400bc005a030000e3
:020000040000fa
:0400c0005a030000df
:020000040000fa
:0400c4005a030000db
:020000040000fa
:0400c8005a030000d7
:020000040000fa
:0400cc005a030000d3
:020000040000fa
:0400d0005a030000cf
:020000040000fa
:0400d4005a030000cb
:020000040000fa
:0400d8005a030000c7
:020000040000fa
:0400dc005a030000c3
:020000040000fa
:0400e0005a030000bf
:020000040000fa
:0400e4005a030000bb
:020000040000fa
:0400e8005a030000b7
:020000040000fa
:0400ec005a030000b3
:020000040000fa
:0400f0005a030000af
:020000040000fa
:0400f4005a030000ab
:020000040000fa
:0400f8005a030000a7
:020000040000fa
:0400fc005a030000a3
:020000040000fa
:040100005a0300009e
:020000040000fa
:040104005a0300009a
:020000040000fa
:040108005a03000096
:020000040000fa
:04010c005a03000092
:020000040000fa
:040110005a0300008e
:020000040000fa
:040114005a0300008a
:020000040000fa
:040118005a03000086
:020000040000fa
:04011c005a03000082
:020000040000fa
:040120005a0300007e
:020000040000fa
:040124005a0300007a
:020000040000fa
:040128005a03000076
:020000040000fa
:04012c005a03000072
:020000040000fa
:040130005a0300006e
:020000040000fa
:040134005a0300006a
:020000040000fa
:040138005a03000066
:020000040000fa
:04013c005a03000062
:020000040000fa
:040140005a0300005e
:020000040000fa
:040144005a0300005a
:020000040000fa
:040148005a03000056
:020000040000fa
:04014c005a03000052
:020000040000fa
:040150005a0300004e
:020000040000fa
:040154005a0300004a
:020000040000fa
:040158005a03000046
:020000040000fa
:04015c005a03000042
:020000040000fa
:040160005a0300003e
:020000040000fa
:040164005a0300003a
:020000040000fa
:040168005a03000036
:020000040000fa
:04016c005a03000032
:020000040000fa
:040170005a0300002e
:020000040000fa
:040174005a0300002a
:020000040000fa
:040178005a03000026
:020000040000fa
:04017c005a03000022
:020000040000fa
:040180005a0300001e
:020000040000fa
:040208005a03000095
:020000040000fa
:04020c005a03000091
:020000040000fa
:040210005a0300008d
:020000040000fa
:040214005a03000089
:020000040000fa
:040218005a03000085
:020000040000fa
:04021c005a03000081
:020000040000fa
:040220005a0300007d
:020000040000fa
:040224005a03000079
:020000040000fa
:040228005a03000075
:020000040000fa
:04022c005a03000071
:020000040000fa
:040230005a0300006d
:020000040000fa
:040234005a03000069
:020000040000fa
:040238005a03000065
:020000040000fa
:04023c005a03000061
:020000040000fa
:040240005a0300005d
:020000040000fa
:040244005a03000059
:020000040000fa
:040248005a03000055
:020000040000fa
:04024c005a03000051
:020000040000fa
:040250005a0300004d
:020000040000fa
:040254005a03000049
:020000040000fa
:040258005a03000045
:020000040000fa
:04025c005a03000041
:020000040000fa
:040260005a0300003d
:020000040000fa
:040264005a03000039
:020000040000fa
:040268005a03000035
:020000040000fa
:04026c005a03000031
:020000040000fa
:040270005a0300002d
:020000040000fa
:040274005a03000029
:020000040000fa
:040278005a03000025
:020000040000fa
:04027c005a03000021
:020000040000fa
:040280005a0300001d
:020000040000fa
:040284005a03000019
:020000040000fa
:040288005a03000015
:020000040000fa
:04028c005a03000011
:020000040000fa
:040290005a0300000d
:020000040000fa
:040294005a03000009
:020000040000fa
:040298005a03000005
:020000040000fa
:04029c005a03000001
:020000040000fa
:0402a0005a030000fd
:020000040000fa
:0402a4005a030000f9
:020000040000fa
:0402a8005a030000f5
:020000040000fa
:0402ac005a030000f1
:020000040000fa
:0402b0005a030000ed
:020000040000fa
:0402b4005a030000e9
:020000040000fa
:0402b8005a030000e5
:020000040000fa
:0402bc005a030000e1
:020000040000fa
:0402c0005a030000dd
:020000040000fa
:0402c4005a030000d9
:020000040000fa
:0402c8005a030000d5
:020000040000fa
:0402cc005a030000d1
:020000040000fa
:0402d0005a030000cd
:020000040000fa
:0402d4005a030000c9
:020000040000fa
:0402d8005a030000c5
:020000040000fa
:0402dc005a030000c1
:020000040000fa
:0402e0005a030000bd
:020000040000fa
:0402e4005a030000b9
:020000040000fa
:0402e8005a030000b5
:020000040000fa
:0402ec005a030000b1
:020000040000fa
:0402f0005a030000ad
:020000040000fa
:0402f4005a030000a9
:020000040000fa
:0402f8005a030000a5
:020000040000fa
:0402fc005a030000a1
:020000040000fa
:040300005a0300009c
:020000040000fa
:040304005a03000098
:020000040000fa
:040308005a03000094
:020000040000fa
:04030c005a03000090
:020000040000fa
:040310005a0300008c
:020000040000fa
:040314005a03000088
:020000040000fa
:040318005a03000084
:020000040000fa
:04031c005a03000080
:020000040000fa
:040320005a0300007c
:020000040000fa
:040324005a03000078
:020000040000fa
:040328005a03000074
:020000040000fa
:04032c005a03000070
:020000040000fa
:040330005a0300006c
:020000040000fa
:040334005a03000068
:020000040000fa
:040338005a03000064
:020000040000fa
:04033c005a03000060
:020000040000fa
:040340005a0300005c
:020000040000fa
:040344005a03000058
:020000040000fa
:040348005a03000054
:020000040000fa
:04034c005a03000050
:020000040000fa
:040350005a0300004c
:020000040000fa
:040354005a03000048
:020000040000fa
:040358005a03000044
:020000040000fa
:04035c005a03000040
:020000040000fa
:040360005a0300003c
:020000040000fa
:040364005a03000038
:020000040000fa
:040368005a03000034
:020000040000fa
:04036c005a03000030
:020000040000fa
:040370005a0300002c
:020000040000fa
:040374005a03000028
:020000040000fa
:040378005a03000024
:020000040000fa
:04037c005a03000020
:020000040000fa
:040380005a0300001c
:020000040000fa
:100400006f8020000e7f22000e0188000000000097
:10041000000020000000e000020032000001200087
:100420002002880014000700a40007000000e0007c
:1004300003003a00004720000100200002003700be
:100440000000200001002000810f70000100320038
:1004500014000700000020000000e000020032004d
:100460000000020000000000600302000000000025
:100470000040da000000fe004440a9000000200017
:100480000000e0000300320000002000a00188000e
:100490004440a800000006008a1f78008b1f7800e7
:1004a0000000060091018800800478000000eb0045
:1004b0001a003700e284440032a0b4009905ba0063
:1004c000e284440032a0b4009906ba00e2844400f9
:1004d00032a0b4000006eb00476fde00fd07b2005b
:1004e000636ce10003003a00ebff07000000eb0043
:1004f0000a003700606ce10004003a00005deb0088
:100500008b05e900fdff3e00040037006168e10053
:10051000010032000086eb000b00070019c7ba008b
:100520001905ba000e04e00003003a000a00e000da
:10053000e0ff3a0000000600fe07b2009e018800be
:100540008a047800f5ff3700395dba008b05e900b1
:100550000c003200295dba008b05e900080032006a
:100560000c00e00003003a00e284440032a0b40032
:10057000f5ff370019ddba008b05e900faff3a00f4
:100580008904e800e184440032a0b40000000600c1
:10059000809fbe003400f80000002000a001880009
:1005a0000200fa000000eb00000f78001016800037
:1005b000610060000000e0001b003a00010037000d
:1005c0001e0fe80010168000610060000000e000cf
:1005d00004003a00300620009e007800808f500012
:1005e000f7ff3400400620009e007800808f500006
:1005f0000a003a00100020000040880000408000ff
:100600000000e9006300b90080007800104080001d
:100610000080400020408800210037000028ef00c3
:100620000428ef001e0037001016800062006000f2
:100630000000e0001a003a00010037001e0fe80039
:1006400010168000620060000000e00004003a0024
:10065000300620009e007800808f5000f7ff3400a5
:10066000400620009e007800808f50000a003a006b
:100670002000200000408800004080000000e900c9
:100680006300b900800078001040800000804000c6
:1006900020408800020037000028ef000428ef0007
:1006a0008660a9000080fa003400f9004f00be0007
:1006b000004006000040da000000fe0000000500d7
:020000040000fa
:1006c0000000fa000080eb0060198800f0002000b4
:1006d0000016880000e02f004016880070e02f0010
:1006e0006016880040038000c000b300400388000b
:1006f00051038000000026000100700050038800b4
:1007000000038000c000b3000003880011038000d4
:100710000000260001007000100388009660a80009
:100720008660a900cc02a800cc22a800cc42a90077
:100730000100370000000000104080000000e800c9
:100740001040880010408000e40f500002003a0082
:10075000100020001040880010408000e20f500080
:1007600007003200e30f500008003200e10f500094
:1007700009003a00cc02a900cc42a80006003700cc
:10078000cc02a800cc22a90003003700cc22a8008c
:10079000cc42a90000000000204080000000e000e2
:1007a000e4ff320020408000e20f500019003200c8
:1007b000e20f500003003c00e10f50000600320041
:1007c00044003700e30f500022003200e40f5000d5
:1007d000300032003f00370060168000700060007b
:1007e00000f0a7000000ea000000e9004f00de0072
:1007f000004078000080fb00610060004400dd00e4
:10080000611680000140a1000100700060168800a0
:100810003000370061168000000220000080600078
:1008200000f0a7000000ea000000e9004f00de0031
:10083000004078000080fb00610060004500dd00a2
:10084000611680000150a100010070006016880050
:100850002000370061168000000820000080600042
:1008600000f0a7000000ea000000e9004f00de00f1
:10087000004078000080fb00610060004700dd0060
:10088000611680000170a1000100700060168800f0
:10089000100037006116800000102000008060000a
:1008a00000f0a7000000ea000000e9004f00de00b1
:1008b000004078000080fb00610060004800dd001f
:1008c000611680000180a1000100700060168800a0
:1008d000000000000028ef000428ef0096ff37001a
:020000040000fa
:1008e00000080000060000000000000000000000fa
:020000040000fa
:020000040001f9
:0457f400fffc0000b6
:020000040000fa
:020000040001f9
:0457f8009f8100008d
:020000040000fa
:020000040001f9
:0457fc007f3f0000eb
:00000001FF
