:020000040000fa
:080000000002040000000000f2
:020000040000fa
:04000800e202000010
:020000040000fa
:04000c00e20200000c
:020000040000fa
:04001000e202000008
:020000040000fa
:04001400e202000004
:020000040000fa
:04001800e202000000
:020000040000fa
:04001c00e2020000fc
:020000040000fa
:04002000e2020000f8
:020000040000fa
:04002400e2020000f4
:020000040000fa
:04002800e2020000f0
:020000040000fa
:04002c00e2020000ec
:020000040000fa
:04003000e2020000e8
:020000040000fa
:04003400e2020000e4
:020000040000fa
:04003800e2020000e0
:020000040000fa
:04003c00e2020000dc
:020000040000fa
:04004000e2020000d8
:020000040000fa
:04004400e2020000d4
:020000040000fa
:04004800e2020000d0
:020000040000fa
:04004c00e2020000cc
:020000040000fa
:04005000e2020000c8
:020000040000fa
:04005400e2020000c4
:020000040000fa
:04005800e2020000c0
:020000040000fa
:04005c00c8020000d6
:020000040000fa
:04006000e2020000b8
:020000040000fa
:04006400e2020000b4
:020000040000fa
:04006800e2020000b0
:020000040000fa
:04006c00e2020000ac
:020000040000fa
:04007000e2020000a8
:020000040000fa
:04007400e2020000a4
:020000040000fa
:04007800e2020000a0
:020000040000fa
:04007c00e20200009c
:020000040000fa
:04008000e202000098
:020000040000fa
:04008400e202000094
:020000040000fa
:04008800e202000090
:020000040000fa
:04008c00e20200008c
:020000040000fa
:04009000e202000088
:020000040000fa
:04009400e202000084
:020000040000fa
:04009800e202000080
:020000040000fa
:04009c00e20200007c
:020000040000fa
:0400a000e202000078
:020000040000fa
:0400a400e202000074
:020000040000fa
:0400a800e202000070
:020000040000fa
:0400ac00e20200006c
:020000040000fa
:0400b000e202000068
:020000040000fa
:0400b400e202000064
:020000040000fa
:0400b800e202000060
:020000040000fa
:0400bc00e20200005c
:020000040000fa
:0400c000e202000058
:020000040000fa
:0400c400e202000054
:020000040000fa
:0400c800e202000050
:020000040000fa
:0400cc00e20200004c
:020000040000fa
:0400d000e202000048
:020000040000fa
:0400d400e202000044
:020000040000fa
:0400d800e202000040
:020000040000fa
:0400dc00e20200003c
:020000040000fa
:0400e000e202000038
:020000040000fa
:0400e400e202000034
:020000040000fa
:0400e800e202000030
:020000040000fa
:0400ec00e20200002c
:020000040000fa
:0400f000e202000028
:020000040000fa
:0400f400e202000024
:020000040000fa
:0400f800e202000020
:020000040000fa
:0400fc00e20200001c
:020000040000fa
:04010000e202000017
:020000040000fa
:04010400e202000013
:020000040000fa
:04010800e20200000f
:020000040000fa
:04010c00e20200000b
:020000040000fa
:04011000e202000007
:020000040000fa
:04011400e202000003
:020000040000fa
:04011800e2020000ff
:020000040000fa
:04011c00e2020000fb
:020000040000fa
:04012000e2020000f7
:020000040000fa
:04012400e2020000f3
:020000040000fa
:04012800e2020000ef
:020000040000fa
:04012c00e2020000eb
:020000040000fa
:04013000e2020000e7
:020000040000fa
:04013400e2020000e3
:020000040000fa
:04013800e2020000df
:020000040000fa
:04013c00e2020000db
:020000040000fa
:04014000e2020000d7
:020000040000fa
:04014400e2020000d3
:020000040000fa
:04014800e2020000cf
:020000040000fa
:04014c00e2020000cb
:020000040000fa
:04015000e2020000c7
:020000040000fa
:04015400e2020000c3
:020000040000fa
:04015800e2020000bf
:020000040000fa
:04015c00e2020000bb
:020000040000fa
:04016000e2020000b7
:020000040000fa
:04016400e2020000b3
:020000040000fa
:04016800e2020000af
:020000040000fa
:04016c00e2020000ab
:020000040000fa
:04017000e2020000a7
:020000040000fa
:04017400e2020000a3
:020000040000fa
:04017800e20200009f
:020000040000fa
:04017c00e20200009b
:020000040000fa
:04018000e202000097
:020000040000fa
:04020800e20200000e
:020000040000fa
:04020c00e20200000a
:020000040000fa
:04021000e202000006
:020000040000fa
:04021400e202000002
:020000040000fa
:04021800e2020000fe
:020000040000fa
:04021c00e2020000fa
:020000040000fa
:04022000e2020000f6
:020000040000fa
:04022400e2020000f2
:020000040000fa
:04022800e2020000ee
:020000040000fa
:04022c00e2020000ea
:020000040000fa
:04023000e2020000e6
:020000040000fa
:04023400e2020000e2
:020000040000fa
:04023800e2020000de
:020000040000fa
:04023c00e2020000da
:020000040000fa
:04024000e2020000d6
:020000040000fa
:04024400e2020000d2
:020000040000fa
:04024800e2020000ce
:020000040000fa
:04024c00e2020000ca
:020000040000fa
:04025000e2020000c6
:020000040000fa
:04025400e2020000c2
:020000040000fa
:04025800e2020000be
:020000040000fa
:04025c00e2020000ba
:020000040000fa
:04026000e2020000b6
:020000040000fa
:04026400e2020000b2
:020000040000fa
:04026800e2020000ae
:020000040000fa
:04026c00e2020000aa
:020000040000fa
:04027000e2020000a6
:020000040000fa
:04027400e2020000a2
:020000040000fa
:04027800e20200009e
:020000040000fa
:04027c00e20200009a
:020000040000fa
:04028000e202000096
:020000040000fa
:04028400e202000092
:020000040000fa
:04028800e20200008e
:020000040000fa
:04028c00e20200008a
:020000040000fa
:04029000e202000086
:020000040000fa
:04029400e202000082
:020000040000fa
:04029800e20200007e
:020000040000fa
:04029c00e20200007a
:020000040000fa
:0402a000e202000076
:020000040000fa
:0402a400e202000072
:020000040000fa
:0402a800e20200006e
:020000040000fa
:0402ac00e20200006a
:020000040000fa
:0402b000e202000066
:020000040000fa
:0402b400e202000062
:020000040000fa
:0402b800e20200005e
:020000040000fa
:0402bc00e20200005a
:020000040000fa
:0402c000e202000056
:020000040000fa
:0402c400e202000052
:020000040000fa
:0402c800e20200004e
:020000040000fa
:0402cc00e20200004a
:020000040000fa
:0402d000e202000046
:020000040000fa
:0402d400e202000042
:020000040000fa
:0402d800e20200003e
:020000040000fa
:0402dc00e20200003a
:020000040000fa
:0402e000e202000036
:020000040000fa
:0402e400e202000032
:020000040000fa
:0402e800e20200002e
:020000040000fa
:0402ec00e20200002a
:020000040000fa
:0402f000e202000026
:020000040000fa
:0402f400e202000022
:020000040000fa
:0402f800e20200001e
:020000040000fa
:0402fc00e20200001a
:020000040000fa
:04030000e202000015
:020000040000fa
:04030400e202000011
:020000040000fa
:04030800e20200000d
:020000040000fa
:04030c00e202000009
:020000040000fa
:04031000e202000005
:020000040000fa
:04031400e202000001
:020000040000fa
:04031800e2020000fd
:020000040000fa
:04031c00e2020000f9
:020000040000fa
:04032000e2020000f5
:020000040000fa
:04032400e2020000f1
:020000040000fa
:04032800e2020000ed
:020000040000fa
:04032c00e2020000e9
:020000040000fa
:04033000e2020000e5
:020000040000fa
:04033400e2020000e1
:020000040000fa
:04033800e2020000dd
:020000040000fa
:04033c00e2020000d9
:020000040000fa
:04034000e2020000d5
:020000040000fa
:04034400e2020000d1
:020000040000fa
:04034800e2020000cd
:020000040000fa
:04034c00e2020000c9
:020000040000fa
:04035000e2020000c5
:020000040000fa
:04035400e2020000c1
:020000040000fa
:04035800e2020000bd
:020000040000fa
:04035c00e2020000b9
:020000040000fa
:04036000e2020000b5
:020000040000fa
:04036400e2020000b1
:020000040000fa
:04036800e2020000ad
:020000040000fa
:04036c00e2020000a9
:020000040000fa
:04037000e2020000a5
:020000040000fa
:04037400e2020000a1
:020000040000fa
:04037800e20200009d
:020000040000fa
:04037c00e202000099
:020000040000fa
:04038000e202000095
:020000040000fa
:100400006f8020000e7f22000e0188000000000097
:10041000000020000000e000020032000001200087
:100420002002880014000700680007000000e000b8
:1004300003003a00c06420000100200002003700e1
:100440000000200001002000810f70000100320038
:1004500014000700000020000000e000020032004d
:10046000000002000000000064050200000000001f
:100470000040da000000fe004440a900a004200073
:100480000000e0000300320000002000a00188000e
:100490004440a800000006008a1f78008b1f7800e7
:1004a0000000060091018800800478000000eb0045
:1004b0001a003700e284440032a0b4009905ba0063
:1004c000e284440032a0b4009906ba00e2844400f9
:1004d00032a0b4000006eb00476fde00fd07b2005b
:1004e000636ce10003003a00ebff07000000eb0043
:1004f0000a003700606ce10004003a00005deb0088
:100500008b05e900fdff3e00040037006168e10053
:10051000010032000086eb000b00070019c7ba008b
:100520001905ba000e04e00003003a000a00e000da
:10053000e0ff3a0000000600fe07b2009e018800be
:100540008a047800f5ff3700395dba008b05e900b1
:100550000c003200295dba008b05e900080032006a
:100560000c00e00003003a00e284440032a0b40032
:10057000f5ff370019ddba008b05e900faff3a00f4
:100580008904e800e184440032a0b40000000600c1
:10059000809fbe000000fa0095a0a90085a0a900d8
:1005a000001880008000eb00104088002140880087
:1005b00095a0a80085a0a9000080fa004f00be0009
:1005c000004006000040da000000fe0000000500c8
:1005d000839f68000100e00002003d006000100001
:1005e000e08018000300e00002003d0060011100ff
:1005f000e0811900050007004f00e00002003b0009
:1006000060001000e0801800000006006022b800c2
:10061000060220000000d0008180d2000482d200b7
:100620008582d2000000a0000202520083825a009c
:10063000030031000202420083824a000000a10050
:0c0640000603e900f3ff3a00000006008a
:020000040000fa
:10064c00474100004d450000204d00004f44000084
:10065c0045000000534500004c4500004354000089
:10066c00003100002d4b000065790000204900008e
:10067c006e70000075740000204d00006f64000067
:10068c0065000000322d00004d7500006c740000f8
:10069c0069200000436800006f690000636500007a
:1006ac0000570000454c0000434f00004d45000032
:1006bc00205400004f0000004a490000454700004c
:1006cc004f27000053200000474100004d4500001b
:0406dc00000000001a
:020000040000fa
:1006e0000400fa00000f7800110798000090200025
:1006f000d10320005a010700cc82a900007d200010
:10070000010020005601070000a62e000100200075
:100710005301070000902000d10320005001070082
:10072000cca2a800007d2000010020004c010700a1
:1007300000a62e00010020004901070000902000c3
:10074000d103200046010700611680001e009000c2
:100750000100700060168800007d2000010020006c
:100760003f01070000a62e00010020003c01070009
:1007700000902000d103200039010700cca2a9007d
:10078000007d2000010020003501070000a62e009a
:10079000010020003201070000902000d10320005a
:1007a0002f010700cc22ef0000a62e000100200040
:1007b0002b01070000902000d10320002801070032
:1007c0000080fa00000006000600fa00000f780022
:1007d00011079800220798009e0090001e007800e4
:1007e000bfff0700ae0090001e007800bcff0700ae
:1007f0000080fa00000006000000fa00220020003d
:100800008000eb000000eb00efff07000080fa0023
:10081000000006000000fa000001eb00c10020000b
:100820000000eb00e8ff07000080fa00000006006f
:100830000600fa0040479800ce409000f0c2b30096
:1008400080cf50000b003400ce409000f0c3b300c6
:1008500080cf500007003c0030002000000f7800df
:100860004e4090000000fb000003b100100798000c
:100870003b003700ce409000f0c3b30080cf500063
:100880000b003400ce409000f0c4b30080cf500085
:1008900007003c0040002000000f78004e40900010
:1008a0000000fb000004b100100798002c00370086
:1008b000ce409000f0c4b30080cf50000b00340055
:1008c000ce409000f0c5b30080cf500007003c0040
:1008d00050002000000f78004e4090000000fb0008
:1008e0000005b100100798001d003700ce409000b1
:1008f00000c6b30080cf50000b003400ce40900003
:10090000f0c6b30080cf500007003c00600020001c
:10091000000f78004e4090000000fb001006b10070
:10092000100798000e003700ce40900000c7b300bb
:1009300080cf50000a003400ce409000d0c7b300f2
:1009400080cf500006003c0070002000000f7800af
:100950004e4090000000fb001007b1001007980007
:100960001e0190009e0078001000200096ff0700f6
:100970000080fa00000006000400fa00100798004a
:100980000000eb00000f7800060037001e00780022
:100990009e0090000080400010407800a4ff0700f7
:1009a0001e0fe8001e0078009e00900000804000ae
:1009b000104078000004e000f4ff3a000080fa00e4
:1009c000000006000000fa00120020008000eb008a
:1009d0000000eb007cff07000080fa00000006002a
:1009e0000000fa0000fc2f004016880000a62e0030
:1009f000010020009a00070000902000d103200091
:100a000097000700310020000000eb0034ff0700d2
:100a100000e22400010020009100070000a62e0043
:100a2000010020008e00070000902000d10320006c
:100a30008b000700310020000000eb0028ff0700ba
:100a40000019200001002000850007000090200010
:100a5000d10320008200070000a62e000100200024
:100a60007f000700310020000000eb001cff0700a2
:100a7000210020000000eb0019ff07008200200089
:100a8000210020000000eb004fff07008200200043
:100a90008000eb000000eb004bff0700c9ff0700e0
:100aa000620020008000eb000000eb0046ff070022
:100ab000f20020008000eb000000eb0042ff070086
:100ac0000080fa00000006000000fa000080eb0041
:100ad0006019880000fc2f0040168800cc22ef002f
:100ae000bfff0700ffff37000000fa00b5ff070057
:100af00041ff0700603228009fff070045ff070005
:100b0000003328009cff070000902000d103200044
:100b100053000700abff070037ff070070332800c2
:100b200095ff07003bff07008034280092ff070075
:100b3000ffff37000000fa000000000010168000e0
:100b4000610060000000e000fcff32000080fa005d
:100b5000000006000000fa009aff070026ff0700c9
:100b60007035280084ff07002aff07002036280080
:100b700081ff0700efff07000080fa000000060079
:100b80000000fa00f0df2f0060198800700e2200cc
:100b9000001988002223ef00f0ff210020198800af
:100ba00090002000401988003023ef0095a0a80095
:100bb00085a0a90021e3a8000080fa00000006003b
:100bc0001000fa00008fbe0022079800330798003b
:100bd0004407980055079800660798007707980023
:100be0002e009000be0090003e011000ae81180063
:100bf0003eba9700ceba97006e009000fe009000bb
:100c00000000520081805a00009ab9000402780066
:100c1000028bb90086027800050242000010b8007d
:100c200001024200840078004e029000de02900033
:100c30002e019000be0190000201520083815a00f3
:100c400063fe07000001be006e009000fe009000f1
:100c500002004000838048000080fa000000060087
:020000040000fa
:100c6000f03fb1000180b10006003500ee0309003d
:100c700000000000403fb1000180b100fbff3d00db
:100c80001000b000203fb0000200350000800900d5
:080c9000000000000000060056
:020000040000fa
:100c9800000800000600000000000000000000003e
:020000040000fa
:020000040001f9
:0457f400fffc0000b6
:020000040000fa
:020000040001f9
:0457f8009f8100008d
:020000040000fa
:020000040001f9
:0457fc007f3f0000eb
:00000001FF
