:020000040000fa
:080000000002040000000000f2
:020000040000fa
:04000800de02000014
:020000040000fa
:04000c00de02000010
:020000040000fa
:04001000de0200000c
:020000040000fa
:04001400de02000008
:020000040000fa
:04001800de02000004
:020000040000fa
:04001c00de02000000
:020000040000fa
:04002000de020000fc
:020000040000fa
:04002400de020000f8
:020000040000fa
:04002800de020000f4
:020000040000fa
:04002c00de020000f0
:020000040000fa
:04003000de020000ec
:020000040000fa
:04003400de020000e8
:020000040000fa
:04003800de020000e4
:020000040000fa
:04003c00de020000e0
:020000040000fa
:04004000de020000dc
:020000040000fa
:04004400de020000d8
:020000040000fa
:04004800de020000d4
:020000040000fa
:04004c00de020000d0
:020000040000fa
:04005000de020000cc
:020000040000fa
:04005400de020000c8
:020000040000fa
:04005800de020000c4
:020000040000fa
:04005c00c8020000d6
:020000040000fa
:04006000de020000bc
:020000040000fa
:04006400de020000b8
:020000040000fa
:04006800de020000b4
:020000040000fa
:04006c00de020000b0
:020000040000fa
:04007000de020000ac
:020000040000fa
:04007400de020000a8
:020000040000fa
:04007800de020000a4
:020000040000fa
:04007c00de020000a0
:020000040000fa
:04008000de0200009c
:020000040000fa
:04008400de02000098
:020000040000fa
:04008800de02000094
:020000040000fa
:04008c00de02000090
:020000040000fa
:04009000de0200008c
:020000040000fa
:04009400de02000088
:020000040000fa
:04009800de02000084
:020000040000fa
:04009c00de02000080
:020000040000fa
:0400a000de0200007c
:020000040000fa
:0400a400de02000078
:020000040000fa
:0400a800de02000074
:020000040000fa
:0400ac00de02000070
:020000040000fa
:0400b000de0200006c
:020000040000fa
:0400b400de02000068
:020000040000fa
:0400b800de02000064
:020000040000fa
:0400bc00de02000060
:020000040000fa
:0400c000de0200005c
:020000040000fa
:0400c400de02000058
:020000040000fa
:0400c800de02000054
:020000040000fa
:0400cc00de02000050
:020000040000fa
:0400d000de0200004c
:020000040000fa
:0400d400de02000048
:020000040000fa
:0400d800de02000044
:020000040000fa
:0400dc00de02000040
:020000040000fa
:0400e000de0200003c
:020000040000fa
:0400e400de02000038
:020000040000fa
:0400e800de02000034
:020000040000fa
:0400ec00de02000030
:020000040000fa
:0400f000de0200002c
:020000040000fa
:0400f400de02000028
:020000040000fa
:0400f800de02000024
:020000040000fa
:0400fc00de02000020
:020000040000fa
:04010000de0200001b
:020000040000fa
:04010400de02000017
:020000040000fa
:04010800de02000013
:020000040000fa
:04010c00de0200000f
:020000040000fa
:04011000de0200000b
:020000040000fa
:04011400de02000007
:020000040000fa
:04011800de02000003
:020000040000fa
:04011c00de020000ff
:020000040000fa
:04012000de020000fb
:020000040000fa
:04012400de020000f7
:020000040000fa
:04012800de020000f3
:020000040000fa
:04012c00de020000ef
:020000040000fa
:04013000de020000eb
:020000040000fa
:04013400de020000e7
:020000040000fa
:04013800de020000e3
:020000040000fa
:04013c00de020000df
:020000040000fa
:04014000de020000db
:020000040000fa
:04014400de020000d7
:020000040000fa
:04014800de020000d3
:020000040000fa
:04014c00de020000cf
:020000040000fa
:04015000de020000cb
:020000040000fa
:04015400de020000c7
:020000040000fa
:04015800de020000c3
:020000040000fa
:04015c00de020000bf
:020000040000fa
:04016000de020000bb
:020000040000fa
:04016400de020000b7
:020000040000fa
:04016800de020000b3
:020000040000fa
:04016c00de020000af
:020000040000fa
:04017000de020000ab
:020000040000fa
:04017400de020000a7
:020000040000fa
:04017800de020000a3
:020000040000fa
:04017c00de0200009f
:020000040000fa
:04018000de0200009b
:020000040000fa
:04020800de02000012
:020000040000fa
:04020c00de0200000e
:020000040000fa
:04021000de0200000a
:020000040000fa
:04021400de02000006
:020000040000fa
:04021800de02000002
:020000040000fa
:04021c00de020000fe
:020000040000fa
:04022000de020000fa
:020000040000fa
:04022400de020000f6
:020000040000fa
:04022800de020000f2
:020000040000fa
:04022c00de020000ee
:020000040000fa
:04023000de020000ea
:020000040000fa
:04023400de020000e6
:020000040000fa
:04023800de020000e2
:020000040000fa
:04023c00de020000de
:020000040000fa
:04024000de020000da
:020000040000fa
:04024400de020000d6
:020000040000fa
:04024800de020000d2
:020000040000fa
:04024c00de020000ce
:020000040000fa
:04025000de020000ca
:020000040000fa
:04025400de020000c6
:020000040000fa
:04025800de020000c2
:020000040000fa
:04025c00de020000be
:020000040000fa
:04026000de020000ba
:020000040000fa
:04026400de020000b6
:020000040000fa
:04026800de020000b2
:020000040000fa
:04026c00de020000ae
:020000040000fa
:04027000de020000aa
:020000040000fa
:04027400de020000a6
:020000040000fa
:04027800de020000a2
:020000040000fa
:04027c00de0200009e
:020000040000fa
:04028000de0200009a
:020000040000fa
:04028400de02000096
:020000040000fa
:04028800de02000092
:020000040000fa
:04028c00de0200008e
:020000040000fa
:04029000de0200008a
:020000040000fa
:04029400de02000086
:020000040000fa
:04029800de02000082
:020000040000fa
:04029c00de0200007e
:020000040000fa
:0402a000de0200007a
:020000040000fa
:0402a400de02000076
:020000040000fa
:0402a800de02000072
:020000040000fa
:0402ac00de0200006e
:020000040000fa
:0402b000de0200006a
:020000040000fa
:0402b400de02000066
:020000040000fa
:0402b800de02000062
:020000040000fa
:0402bc00de0200005e
:020000040000fa
:0402c000de0200005a
:020000040000fa
:0402c400de02000056
:020000040000fa
:0402c800de02000052
:020000040000fa
:0402cc00de0200004e
:020000040000fa
:0402d000de0200004a
:020000040000fa
:0402d400de02000046
:020000040000fa
:0402d800de02000042
:020000040000fa
:0402dc00de0200003e
:020000040000fa
:0402e000de0200003a
:020000040000fa
:0402e400de02000036
:020000040000fa
:0402e800de02000032
:020000040000fa
:0402ec00de0200002e
:020000040000fa
:0402f000de0200002a
:020000040000fa
:0402f400de02000026
:020000040000fa
:0402f800de02000022
:020000040000fa
:0402fc00de0200001e
:020000040000fa
:04030000de02000019
:020000040000fa
:04030400de02000015
:020000040000fa
:04030800de02000011
:020000040000fa
:04030c00de0200000d
:020000040000fa
:04031000de02000009
:020000040000fa
:04031400de02000005
:020000040000fa
:04031800de02000001
:020000040000fa
:04031c00de020000fd
:020000040000fa
:04032000de020000f9
:020000040000fa
:04032400de020000f5
:020000040000fa
:04032800de020000f1
:020000040000fa
:04032c00de020000ed
:020000040000fa
:04033000de020000e9
:020000040000fa
:04033400de020000e5
:020000040000fa
:04033800de020000e1
:020000040000fa
:04033c00de020000dd
:020000040000fa
:04034000de020000d9
:020000040000fa
:04034400de020000d5
:020000040000fa
:04034800de020000d1
:020000040000fa
:04034c00de020000cd
:020000040000fa
:04035000de020000c9
:020000040000fa
:04035400de020000c5
:020000040000fa
:04035800de020000c1
:020000040000fa
:04035c00de020000bd
:020000040000fa
:04036000de020000b9
:020000040000fa
:04036400de020000b5
:020000040000fa
:04036800de020000b1
:020000040000fa
:04036c00de020000ad
:020000040000fa
:04037000de020000a9
:020000040000fa
:04037400de020000a5
:020000040000fa
:04037800de020000a1
:020000040000fa
:04037c00de0200009d
:020000040000fa
:04038000de02000099
:020000040000fa
:100400006f8020000e7f22000e0188000000000097
:10041000000020000000e000020032000001200087
:100420002002880014000700660007000000e000ba
:1004300003003a00c039200001002000020037000c
:100440000000200001002000810f70000100320038
:1004500014000700000020000000e000020032004d
:100460000000020000000000e402020000000000a2
:100470000040da000000fe004440a9000000200017
:100480000000e0000300320000002000a00188000e
:100490004440a800000006008a1f78008b1f7800e7
:1004a0000000060091018800800478000000eb0045
:1004b0001a003700e284440032a0b4009905ba0063
:1004c000e284440032a0b4009906ba00e2844400f9
:1004d00032a0b4000006eb00476fde00fd07b2005b
:1004e000636ce10003003a00ebff07000000eb0043
:1004f0000a003700606ce10004003a00005deb0088
:100500008b05e900fdff3e00040037006168e10053
:10051000010032000086eb000b00070019c7ba008b
:100520001905ba000e04e00003003a000a00e000da
:10053000e0ff3a0000000600fe07b2009e018800be
:100540008a047800f5ff3700395dba008b05e900b1
:100550000c003200295dba008b05e900080032006a
:100560000c00e00003003a00e284440032a0b40032
:10057000f5ff370019ddba008b05e900faff3a00f4
:100580008904e800e184440032a0b40000000600c1
:10059000801f78000000fa0095a0a90085a0a9009e
:1005a000001880000040880095a0a80085a0a90040
:1005b0000080fa004f007800004006000040da009a
:0805c0000000fe000000050030
:020000040000fa
:1005c8000000fa004b00070095a0a80085a0a9002c
:1005d80021e3a8000100370000000000004080006f
:1005e800640020008001eb00f23f20008000eb0057
:1005f800280007001040880021408000104080003b
:10060800808f5000f4ff32006116800000f82f0040
:10061800008060006016880010408000e30f5000e2
:1006280010003200e30f500005003c00e10f5000bd
:100638000e003200e20f50000b0032000d003700b0
:10064800e50f500005003200e50f500004003500aa
:10065800e60f500007003a00cca2a800cc82a80000
:10066800cc62a800cc42a800cc22a800cc02a800ea
:10067800050037006116800000f82f000080600038
:1006880060168800000000001040800020408800ac
:10069800d2ff37000a00fa00000f7800110798000f
:1006a8002207980033079800440798001e0090001e
:1006b8009e0010004e0190003e0090000000510086
:1006c8000088b900800078002e0190001e0090007c
:1006d8000000510000017800110009008200d800d4
:1006e800800078003e009000008040000080fa0002
:1006f800000006000000fa00f0df2f0060198800f3
:10070800700e2200001988002223ef00102020001c
:100718002019880090002000401988003023ef003d
:1007280000fc2f00401688000080fa000000060038
:020000040000fa
:1007380000080000060000000000000000000000a3
:020000040000fa
:020000040001f9
:0457f400fffc0000b6
:020000040000fa
:020000040001f9
:0457f8009f8100008d
:020000040000fa
:020000040001f9
:0457fc007f3f0000eb
:00000001FF
