:020000040000fa
:08000000820204000000000070
:020000040000fa
:040008007c02000076
:020000040000fa
:04000c007c02000072
:020000040000fa
:040010007c0200006e
:020000040000fa
:040014007c0200006a
:020000040000fa
:040018007c02000066
:020000040000fa
:04001c007c02000062
:020000040000fa
:040020007c0200005e
:020000040000fa
:040024007c0200005a
:020000040000fa
:040028007c02000056
:020000040000fa
:04002c007c02000052
:020000040000fa
:040030007c0200004e
:020000040000fa
:040034007c0200004a
:020000040000fa
:040038007c02000046
:020000040000fa
:04003c007c02000042
:020000040000fa
:040040007c0200003e
:020000040000fa
:040044007c0200003a
:020000040000fa
:040048007c02000036
:020000040000fa
:04004c007c02000032
:020000040000fa
:040050007c0200002e
:020000040000fa
:040054007c0200002a
:020000040000fa
:040058007c02000026
:020000040000fa
:04005c007c02000022
:020000040000fa
:040060007c0200001e
:020000040000fa
:040064007c0200001a
:020000040000fa
:040068007c02000016
:020000040000fa
:04006c007c02000012
:020000040000fa
:040070007c0200000e
:020000040000fa
:040074007c0200000a
:020000040000fa
:040078007c02000006
:020000040000fa
:04007c007c02000002
:020000040000fa
:040080007c020000fe
:020000040000fa
:040084007c020000fa
:020000040000fa
:040088007c020000f6
:020000040000fa
:04008c007c020000f2
:020000040000fa
:040090007c020000ee
:020000040000fa
:040094007c020000ea
:020000040000fa
:040098007c020000e6
:020000040000fa
:04009c007c020000e2
:020000040000fa
:0400a0007c020000de
:020000040000fa
:0400a4007c020000da
:020000040000fa
:0400a8007c020000d6
:020000040000fa
:0400ac007c020000d2
:020000040000fa
:0400b0007c020000ce
:020000040000fa
:0400b4007c020000ca
:020000040000fa
:0400b8007c020000c6
:020000040000fa
:0400bc007c020000c2
:020000040000fa
:0400c0007c020000be
:020000040000fa
:0400c4007c020000ba
:020000040000fa
:0400c8007c020000b6
:020000040000fa
:0400cc007c020000b2
:020000040000fa
:0400d0007c020000ae
:020000040000fa
:0400d4007c020000aa
:020000040000fa
:0400d8007c020000a6
:020000040000fa
:0400dc007c020000a2
:020000040000fa
:0400e0007c0200009e
:020000040000fa
:0400e4007c0200009a
:020000040000fa
:0400e8007c02000096
:020000040000fa
:0400ec007c02000092
:020000040000fa
:0400f0007c0200008e
:020000040000fa
:0400f4007c0200008a
:020000040000fa
:0400f8007c02000086
:020000040000fa
:0400fc007c02000082
:020000040000fa
:040100007c0200007d
:020000040000fa
:040104007c02000079
:020000040000fa
:040108007c02000075
:020000040000fa
:04010c007c02000071
:020000040000fa
:040110007c0200006d
:020000040000fa
:040114007c02000069
:020000040000fa
:040118007c02000065
:020000040000fa
:04011c007c02000061
:020000040000fa
:040120007c0200005d
:020000040000fa
:040124007c02000059
:020000040000fa
:040128007c02000055
:020000040000fa
:04012c007c02000051
:020000040000fa
:040130007c0200004d
:020000040000fa
:040134007c02000049
:020000040000fa
:040138007c02000045
:020000040000fa
:04013c007c02000041
:020000040000fa
:040140007c0200003d
:020000040000fa
:040144007c02000039
:020000040000fa
:040148007c02000035
:020000040000fa
:04014c007c02000031
:020000040000fa
:040150007c0200002d
:020000040000fa
:040154007c02000029
:020000040000fa
:040158007c02000025
:020000040000fa
:04015c007c02000021
:020000040000fa
:040160007c0200001d
:020000040000fa
:040164007c02000019
:020000040000fa
:040168007c02000015
:020000040000fa
:04016c007c02000011
:020000040000fa
:040170007c0200000d
:020000040000fa
:040174007c02000009
:020000040000fa
:040178007c02000005
:020000040000fa
:04017c007c02000001
:020000040000fa
:040180007c020000fd
:020000040000fa
:040208007c02000074
:020000040000fa
:04020c007c02000070
:020000040000fa
:040210007c0200006c
:020000040000fa
:040214007c02000068
:020000040000fa
:040218007c02000064
:020000040000fa
:04021c007c02000060
:020000040000fa
:040220007c0200005c
:020000040000fa
:040224007c02000058
:020000040000fa
:040228007c02000054
:020000040000fa
:04022c007c02000050
:020000040000fa
:040230007c0200004c
:020000040000fa
:040234007c02000048
:020000040000fa
:040238007c02000044
:020000040000fa
:04023c007c02000040
:020000040000fa
:040240007c0200003c
:020000040000fa
:040244007c02000038
:020000040000fa
:040248007c02000034
:020000040000fa
:04024c007c02000030
:020000040000fa
:040250007c0200002c
:020000040000fa
:040254007c02000028
:020000040000fa
:040258007c02000024
:020000040000fa
:04025c007c02000020
:020000040000fa
:040260007c0200001c
:020000040000fa
:040264007c02000018
:020000040000fa
:040268007c02000014
:020000040000fa
:04026c007c02000010
:020000040000fa
:040270007c0200000c
:020000040000fa
:040274007c02000008
:020000040000fa
:040278007c02000004
:020000040000fa
:04027c007c02000000
:020000040000fa
:040280007c020000fc
:020000040000fa
:040284007c020000f8
:020000040000fa
:040288007c020000f4
:020000040000fa
:04028c007c020000f0
:020000040000fa
:040290007c020000ec
:020000040000fa
:040294007c020000e8
:020000040000fa
:040298007c020000e4
:020000040000fa
:04029c007c020000e0
:020000040000fa
:0402a0007c020000dc
:020000040000fa
:0402a4007c020000d8
:020000040000fa
:0402a8007c020000d4
:020000040000fa
:0402ac007c020000d0
:020000040000fa
:0402b0007c020000cc
:020000040000fa
:0402b4007c020000c8
:020000040000fa
:0402b8007c020000c4
:020000040000fa
:0402bc007c020000c0
:020000040000fa
:0402c0007c020000bc
:020000040000fa
:0402c4007c020000b8
:020000040000fa
:0402c8007c020000b4
:020000040000fa
:0402cc007c020000b0
:020000040000fa
:0402d0007c020000ac
:020000040000fa
:0402d4007c020000a8
:020000040000fa
:0402d8007c020000a4
:020000040000fa
:0402dc007c020000a0
:020000040000fa
:0402e0007c0200009c
:020000040000fa
:0402e4007c02000098
:020000040000fa
:0402e8007c02000094
:020000040000fa
:0402ec007c02000090
:020000040000fa
:0402f0007c0200008c
:020000040000fa
:0402f4007c02000088
:020000040000fa
:0402f8007c02000084
:020000040000fa
:0402fc007c02000080
:020000040000fa
:040300007c0200007b
:020000040000fa
:040304007c02000077
:020000040000fa
:040308007c02000073
:020000040000fa
:04030c007c0200006f
:020000040000fa
:040310007c0200006b
:020000040000fa
:040314007c02000067
:020000040000fa
:040318007c02000063
:020000040000fa
:04031c007c0200005f
:020000040000fa
:040320007c0200005b
:020000040000fa
:040324007c02000057
:020000040000fa
:040328007c02000053
:020000040000fa
:04032c007c0200004f
:020000040000fa
:040330007c0200004b
:020000040000fa
:040334007c02000047
:020000040000fa
:040338007c02000043
:020000040000fa
:04033c007c0200003f
:020000040000fa
:040340007c0200003b
:020000040000fa
:040344007c02000037
:020000040000fa
:040348007c02000033
:020000040000fa
:04034c007c0200002f
:020000040000fa
:040350007c0200002b
:020000040000fa
:040354007c02000027
:020000040000fa
:040358007c02000023
:020000040000fa
:04035c007c0200001f
:020000040000fa
:040360007c0200001b
:020000040000fa
:040364007c02000017
:020000040000fa
:040368007c02000013
:020000040000fa
:04036c007c0200000f
:020000040000fa
:040370007c0200000b
:020000040000fa
:040374007c02000007
:020000040000fa
:040378007c02000003
:020000040000fa
:04037c007c020000ff
:020000040000fa
:040380007c020000fb
:020000040000fa
:100400008a1f78008b1f7800000006009101880089
:10041000800478000000eb001a003700e2844400fa
:1004200032a0b4009905ba00e284440032a0b400be
:100430009906ba00e284440032a0b4000006eb0042
:10044000476fde00fd07b200636ce10003003a0075
:10045000ebff07000000eb000a003700606ce100d2
:1004600004003a00005deb008b05e900fdff3e0053
:10047000040037006168e100010032000086eb00f3
:100480000b00070019c7ba001905ba000e04e000f6
:1004900003003a000a00e000e0ff3a000000060016
:1004a000fe07b2009e0188008a047800f5ff37003d
:1004b000395dba008b05e9000c003200295dba00f5
:1004c0008b05e900080032000c00e00003003a0050
:1004d000e284440032a0b400f5ff370019ddba0011
:1004e0008b05e900faff3a008904e800e184440042
:1004f00032a0b400000006000040da000000fe0058
:0405000000000500f2
:020000040000fa
:100504004f802000007f2200000188000028ef00b7
:100514000228ef00f0ff2f006019880000fc2f0074
:1005240040168800f0ff2f000016880030060200f5
:1005340000000000cc02020000000000ae03020034
:10054400000000007c06020000000000f802020027
:1005540000000000cc03020000000000e4060200da
:10056400000000007c060200000000006c03020092
:1005740000000000f803020000000000ec06020086
:10058400000000007c060200000000009c02040041
:10059400000000003c0402000000000004002000f1
:1005a4009100200082002000d80602000000000014
:1005b4003c04020000000000ac0602000000000041
:1005c400880402000000000004002000d100200084
:1005d40082002000d8060200000000008804020007
:1005e40000000000050020000000060004012000b7
:1005f4003100200012002000d80602000000000094
:100604003100200072002000d80602000000000023
:100614003100200002002000d80602000000000083
:10062400a100200002002000d80602000000000003
:100634006100200032002000d80602000000000003
:1006440061002000d2002000d80602000000000053
:1006540004002000c100200002002000d80602008f
:100664000000000004012000a1002000020020007e
:10067400d8060200000000003100200052002000d3
:10068400d8060200000000003100200052002000c3
:10069400d806020000000000a10020000200200093
:1006a400d80602000000000061002000b200200013
:1006b400d806020000000000610020007200200043
:1006c400d8060200000000000500200016002000eb
:1006d4000000060076030200000000000500200070
:1006e4001600200000000600d404020000000000f0
:1006f400ac06020000000000ec050200000000004f
:1007040000000600ec05020000000000ac06020038
:100714000000000044050200000000000000060084
:100724004405020000000000ac06020000000000c6
:100734002805020000000000000006002805020051
:1007440000000000ac06020000000000900502005a
:100754000000000000000600c202ae000000060017
:1007640094060200000000008502e8007028e10001
:100774004220af0088060200000000004220af00c3
:1007840005002000fe06020000000000ae03040085
:1007940000000000c202af00000006000600a7002f
:1007a40094060200000000000600a600a006020055
:1007b400000000000600a7008502e8000600a6006d
:1007c4008502e9006a28e1004220af000600a20089
:1007d4006028e1004220af000600a200fe060200ed
:1007e40000000000cc03040000000000c202af00bf
:1007f40000000600fe06020000000000fe060200e3
:10080400000000007c060200000000000600a700b3
:100814008502e8000600a6008502e9006028e100e0
:100824004220af0076030200000000004220af0027
:100834000600a2006128e1004220af008403020008
:10084400000000006228e1004220af009203020091
:10085400000000006328e1004220af00a003020072
:10086400000000004220af000600a200f8030400cc
:10087400000000000401200041002000a20020002c
:10088400d806020000000000a100200002002000a1
:10089400d806020000000000410020007200200081
:1008a400d806020000000000710020005200200061
:1008b400d8060200000000006100200012002000a1
:1008c400d80602000000000061002000e2002000c1
:1008d400d80602000000000071002000a2002000e1
:1008e400d80602000000000061002000f200200091
:1008f400d80602000000000061002000e200200091
:10090400d8060200000000000000060004012000d8
:100914003100200022002000d80602000000000060
:100924003100200002002000d80602000000000070
:100934003100200012002000d80602000000000050
:100944003100200052002000d80602000000000000
:100954003100200002002000d80602000000000040
:100964003100200072002000d806020000000000c0
:100974003100200092002000d80602000000000090
:100984003100200002002000d80602000000000010
:100994003100200062002000d806020000000000a0
:1009a400000006000401200041002000d2002000c5
:1009b400d806020000000000610020003200200080
:1009c400d806020000000000410020004200200080
:1009d400d80602000000000061002000f2002000a0
:1009e400d80602000000000061002000e2002000a0
:1009f400d806020000000000610020001200200060
:100a0400d80602000000000061002000c20020009f
:100a1400d80602000000000061002000420020000f
:100a2400d80602000000000021002000720020000f
:100a3400d8060200000000007100200032002000ef
:100a4400d806020000000000000006000401200097
:100a540041002000b2002000d8060200000000007f
:100a64004100200062002000d806020000000000bf
:100a74004100200032002000d806020000000000df
:100a84000000060004012000410020003200200084
:100a9400d80602000000000061002000820020004f
:100aa400d80602000000000061002000f2002000cf
:100ab400d80602000000000071002000720020002f
:100ac400d806020000000000a1002000020020005f
:100ad400d80602000000000041002000b2002000ff
:100ae400d8060200000000006100200092002000ef
:100af400d80602000000000061002000e20020008f
:100b0400d8060200000000006100200072002000ee
:100b1400d8060200000000000000060004012000c6
:100b24004100200022002000d8060200000000003e
:100b34007100200052002000d806020000000000ce
:100b44007100200022002000d806020000000000ee
:100b54006100200072002000d8060200000000009e
:100b64006100200052002000d806020000000000ae
:100b74007100200022002000d806020000000000be
:100b8400a100200002002000d8060200000000009e
:100b940041002000b2002000d8060200000000003e
:100ba4006100200092002000d8060200000000002e
:100bb40061002000e2002000d806020000000000ce
:100bc4006100200072002000d8060200000000002e
:100bd400000006000401200041002000a2002000c3
:100be400d80602000000000061002000f20020008e
:100bf400d80602000000000061002000c2002000ae
:100c0400d80602000000000061002000c20020009d
:100c1400d8060200000000006100200092002000bd
:100c2400d80602000000000061002000220020001d
:100c3400d8060200000000006100200052002000dd
:100c4400d8060200000000006100200052002000cd
:100c5400d806020000000000000006002e07020073
:100c6400000000000400200031002000b80602004b
:100c740000000000240702000000000031002000f2
:100c8400b806020000000000100702000000000087
:100c940031002000b80602000000000021002000fe
:100ca400b80602000000000021002000820020009d
:100cb400d80602000000000001002000820020008d
:100cc400d8060200000000007c06020000000000bc
:100cd4000100200062002000d8060200000000008d
:100ce40001002000c2002000d8060200000000001d
:100cf4000000060004002000010020001200200073
:100d0400d8060200000000000000060004002000d5
:100d14000100200022002000d8060200000000008c
:100d2400000006000400200011002000c200200082
:100d3400d8060200000000000000060004002000a5
:100d44001100200082002000d806020000000000ec
:100d54000000060004002000c10020000200200062
:100d6400d806020000000000000006006416880097
:100d74001a07020000000000cca2a8001a07020013
:100d840000000000631680008380700061168800f4
:100d94001a07020000000000cca2a9001a070200f2
:100da40000000000cc22ef0000000600b80602009c
:100db4000000000082007800b80602000000000075
:100dc40000000600c202af00e406040000000000b8
:100dd40000000600d00c200000408800f0ff2f0027
:100de400104088000228ed00feff3a000028ed00c4
:100df400fcff3a0000000600b0002000004088001c
:100e040030c22200104088000228ed00feff3a00a4
:100e14000028ed00fcff3a00000006000009200055
:100e2400104088000228ed00feff3a000000060092
:100e3400002c2000104088000228ed00feff3a003c
:100e44000000060000602100104088000228ed0028
:100e5400feff3a000000060000f024001040880065
:0c0e64000228ed00feff3a00000006002e
:020000040000fa
:100e70000008000004000000000000000000000066
:020000040000fa
:020000040001f9
:0457f400fffc0000b6
:020000040000fa
:020000040001f9
:0457f8009f8100008d
:020000040000fa
:020000040001f9
:0457fc007f3f0000eb
:00000001FF
