:020000040000fa
:080000000002040000000000f2
:020000040000fa
:04000800c80200002a
:020000040000fa
:04000c00c802000026
:020000040000fa
:04001000c802000022
:020000040000fa
:04001400c80200001e
:020000040000fa
:04001800c80200001a
:020000040000fa
:04001c00c802000016
:020000040000fa
:04002000c802000012
:020000040000fa
:04002400c80200000e
:020000040000fa
:04002800c80200000a
:020000040000fa
:04002c00c802000006
:020000040000fa
:04003000c802000002
:020000040000fa
:04003400c8020000fe
:020000040000fa
:04003800c8020000fa
:020000040000fa
:04003c00c8020000f6
:020000040000fa
:04004000c8020000f2
:020000040000fa
:04004400c8020000ee
:020000040000fa
:04004800c8020000ea
:020000040000fa
:04004c00c8020000e6
:020000040000fa
:04005000c8020000e2
:020000040000fa
:04005400c8020000de
:020000040000fa
:04005800c8020000da
:020000040000fa
:04005c00c8020000d6
:020000040000fa
:04006000c8020000d2
:020000040000fa
:04006400c8020000ce
:020000040000fa
:04006800c8020000ca
:020000040000fa
:04006c00c8020000c6
:020000040000fa
:04007000c8020000c2
:020000040000fa
:04007400c8020000be
:020000040000fa
:04007800c8020000ba
:020000040000fa
:04007c00c8020000b6
:020000040000fa
:04008000c8020000b2
:020000040000fa
:04008400c8020000ae
:020000040000fa
:04008800c8020000aa
:020000040000fa
:04008c00c8020000a6
:020000040000fa
:04009000c8020000a2
:020000040000fa
:04009400c80200009e
:020000040000fa
:04009800c80200009a
:020000040000fa
:04009c00c802000096
:020000040000fa
:0400a000c802000092
:020000040000fa
:0400a400c80200008e
:020000040000fa
:0400a800c80200008a
:020000040000fa
:0400ac00c802000086
:020000040000fa
:0400b000c802000082
:020000040000fa
:0400b400c80200007e
:020000040000fa
:0400b800c80200007a
:020000040000fa
:0400bc00c802000076
:020000040000fa
:0400c000c802000072
:020000040000fa
:0400c400c80200006e
:020000040000fa
:0400c800c80200006a
:020000040000fa
:0400cc00c802000066
:020000040000fa
:0400d000c802000062
:020000040000fa
:0400d400c80200005e
:020000040000fa
:0400d800c80200005a
:020000040000fa
:0400dc00c802000056
:020000040000fa
:0400e000c802000052
:020000040000fa
:0400e400c80200004e
:020000040000fa
:0400e800c80200004a
:020000040000fa
:0400ec00c802000046
:020000040000fa
:0400f000c802000042
:020000040000fa
:0400f400c80200003e
:020000040000fa
:0400f800c80200003a
:020000040000fa
:0400fc00c802000036
:020000040000fa
:04010000c802000031
:020000040000fa
:04010400c80200002d
:020000040000fa
:04010800c802000029
:020000040000fa
:04010c00c802000025
:020000040000fa
:04011000c802000021
:020000040000fa
:04011400c80200001d
:020000040000fa
:04011800c802000019
:020000040000fa
:04011c00c802000015
:020000040000fa
:04012000c802000011
:020000040000fa
:04012400c80200000d
:020000040000fa
:04012800c802000009
:020000040000fa
:04012c00c802000005
:020000040000fa
:04013000c802000001
:020000040000fa
:04013400c8020000fd
:020000040000fa
:04013800c8020000f9
:020000040000fa
:04013c00c8020000f5
:020000040000fa
:04014000c8020000f1
:020000040000fa
:04014400c8020000ed
:020000040000fa
:04014800c8020000e9
:020000040000fa
:04014c00c8020000e5
:020000040000fa
:04015000c8020000e1
:020000040000fa
:04015400c8020000dd
:020000040000fa
:04015800c8020000d9
:020000040000fa
:04015c00c8020000d5
:020000040000fa
:04016000c8020000d1
:020000040000fa
:04016400c8020000cd
:020000040000fa
:04016800c8020000c9
:020000040000fa
:04016c00c8020000c5
:020000040000fa
:04017000c8020000c1
:020000040000fa
:04017400c8020000bd
:020000040000fa
:04017800c8020000b9
:020000040000fa
:04017c00c8020000b5
:020000040000fa
:04018000c8020000b1
:020000040000fa
:04020800c802000028
:020000040000fa
:04020c00c802000024
:020000040000fa
:04021000c802000020
:020000040000fa
:04021400c80200001c
:020000040000fa
:04021800c802000018
:020000040000fa
:04021c00c802000014
:020000040000fa
:04022000c802000010
:020000040000fa
:04022400c80200000c
:020000040000fa
:04022800c802000008
:020000040000fa
:04022c00c802000004
:020000040000fa
:04023000c802000000
:020000040000fa
:04023400c8020000fc
:020000040000fa
:04023800c8020000f8
:020000040000fa
:04023c00c8020000f4
:020000040000fa
:04024000c8020000f0
:020000040000fa
:04024400c8020000ec
:020000040000fa
:04024800c8020000e8
:020000040000fa
:04024c00c8020000e4
:020000040000fa
:04025000c8020000e0
:020000040000fa
:04025400c8020000dc
:020000040000fa
:04025800c8020000d8
:020000040000fa
:04025c00c8020000d4
:020000040000fa
:04026000c8020000d0
:020000040000fa
:04026400c8020000cc
:020000040000fa
:04026800c8020000c8
:020000040000fa
:04026c00c8020000c4
:020000040000fa
:04027000c8020000c0
:020000040000fa
:04027400c8020000bc
:020000040000fa
:04027800c8020000b8
:020000040000fa
:04027c00c8020000b4
:020000040000fa
:04028000c8020000b0
:020000040000fa
:04028400c8020000ac
:020000040000fa
:04028800c8020000a8
:020000040000fa
:04028c00c8020000a4
:020000040000fa
:04029000c8020000a0
:020000040000fa
:04029400c80200009c
:020000040000fa
:04029800c802000098
:020000040000fa
:04029c00c802000094
:020000040000fa
:0402a000c802000090
:020000040000fa
:0402a400c80200008c
:020000040000fa
:0402a800c802000088
:020000040000fa
:0402ac00c802000084
:020000040000fa
:0402b000c802000080
:020000040000fa
:0402b400c80200007c
:020000040000fa
:0402b800c802000078
:020000040000fa
:0402bc00c802000074
:020000040000fa
:0402c000c802000070
:020000040000fa
:0402c400c80200006c
:020000040000fa
:0402c800c802000068
:020000040000fa
:0402cc00c802000064
:020000040000fa
:0402d000c802000060
:020000040000fa
:0402d400c80200005c
:020000040000fa
:0402d800c802000058
:020000040000fa
:0402dc00c802000054
:020000040000fa
:0402e000c802000050
:020000040000fa
:0402e400c80200004c
:020000040000fa
:0402e800c802000048
:020000040000fa
:0402ec00c802000044
:020000040000fa
:0402f000c802000040
:020000040000fa
:0402f400c80200003c
:020000040000fa
:0402f800c802000038
:020000040000fa
:0402fc00c802000034
:020000040000fa
:04030000c80200002f
:020000040000fa
:04030400c80200002b
:020000040000fa
:04030800c802000027
:020000040000fa
:04030c00c802000023
:020000040000fa
:04031000c80200001f
:020000040000fa
:04031400c80200001b
:020000040000fa
:04031800c802000017
:020000040000fa
:04031c00c802000013
:020000040000fa
:04032000c80200000f
:020000040000fa
:04032400c80200000b
:020000040000fa
:04032800c802000007
:020000040000fa
:04032c00c802000003
:020000040000fa
:04033000c8020000ff
:020000040000fa
:04033400c8020000fb
:020000040000fa
:04033800c8020000f7
:020000040000fa
:04033c00c8020000f3
:020000040000fa
:04034000c8020000ef
:020000040000fa
:04034400c8020000eb
:020000040000fa
:04034800c8020000e7
:020000040000fa
:04034c00c8020000e3
:020000040000fa
:04035000c8020000df
:020000040000fa
:04035400c8020000db
:020000040000fa
:04035800c8020000d7
:020000040000fa
:04035c00c8020000d3
:020000040000fa
:04036000c8020000cf
:020000040000fa
:04036400c8020000cb
:020000040000fa
:04036800c8020000c7
:020000040000fa
:04036c00c8020000c3
:020000040000fa
:04037000c8020000bf
:020000040000fa
:04037400c8020000bb
:020000040000fa
:04037800c8020000b7
:020000040000fa
:04037c00c8020000b3
:020000040000fa
:04038000c8020000af
:020000040000fa
:100400000f8020000e7f22000e01880000000000f7
:10041000000020000000e000020032000001200087
:1004200020028800140007005b0007000000e000c5
:1004300003003a0000002000010020000200370005
:100440000000200001002000810f70000100320038
:1004500014000700000020000000e000020032004d
:100460000000020000000000400502000000000043
:100470000040da000000fe004440a9000000200017
:100480000000e0000300320000002000a00188000e
:100490004440a800000006008a1f78008b1f7800e7
:1004a0000000060091018800800478000000eb0045
:1004b0001a003700e284440032a0b4009905ba0063
:1004c000e284440032a0b4009906ba00e2844400f9
:1004d00032a0b4000006eb00476fde00fd07b2005b
:1004e000636ce10003003a00ebff07000000eb0043
:1004f0000a003700606ce10004003a00005deb0088
:100500008b05e900fdff3e00040037006168e10053
:10051000010032000086eb000b00070019c7ba008b
:100520001905ba000e04e00003003a000a00e000da
:10053000e0ff3a0000000600fe07b2009e018800be
:100540008a047800f5ff3700395dba008b05e900b1
:100550000c003200295dba008b05e900080032006a
:100560000c00e00003003a00e284440032a0b40032
:10057000f5ff370019ddba008b05e900faff3a00f4
:100580008904e800e184440032a0b40000000600c1
:100590000040da000000fe00000005008000780046
:1005a000010178003104e000fdff3a000000510035
:0405b0000000060041
:020000040000fa
:1005b4000400fa00000f7800110798001e0078006c
:1005c40000407800614060000080fb006100600032
:1005d4004400dd00611680000140a10001007000ac
:1005e40060168800007d20000100200054010700ef
:1005f400cca2a800007d20000100200050010700cb
:10060400611680001e0090000100700060168800d2
:10061400007d20000100200049010700cca2a900b0
:10062400007d20000100200045010700cc22ef00de
:100634000080fa00000006000600fa00000f7800af
:1006440011079800220798009e0090001e00780071
:10065400d7ff0700ae0090001e007800d4ff07000b
:100664000080fa00000006000000fa00e20020000a
:100674008000eb000000eb00efff07000080fa00b1
:10068400000006000000fa00c20020008000eb0019
:100694000000eb00e8ff07000080fa0000000600fd
:1006a4000000fa00220020008000eb000000eb00b4
:1006b400e1ff07000080fa00000006000000fa00d5
:1006c4000001eb00c10020000000eb00daff07008e
:1006d4000080fa00000006000600fa004047980077
:1006e400ce40900070c2b30080cf500005003a00a5
:1006f40020002000000f78007000200010079800f0
:1007040077003700ce409000e0c2b30080cf5000a5
:1007140005003a0020002000000f7800e0002000cf
:10072400100798006e003700ce409000b0c2b300ae
:1007340080cf500005003a0020002000000f780010
:10074400b00020001007980065003700ce409000ec
:10075400a0c2b30080cf500005003a002000200062
:10076400000f7800a0002000100798005c003700fc
:10077400ce409000d0c2b30080cf500005003a00b4
:1007840020002000000f7800d000200010079800ff
:1007940053003700ce40900000c2b30080cf500019
:1007a40005003a00a0002000000f78000000eb00d4
:1007b400100798004a003700ce409000f0c2b30002
:1007c40080cf50000b003400ce409000f0c3b30043
:1007d40080cf500007003c0030002000000f78005c
:1007e4004e4090000000fb000003b1001007980089
:1007f4003b003700ce409000f0c3b30080cf5000e0
:100804000b003400ce409000f0c4b30080cf500001
:1008140007003c0040002000000f78004e4090008c
:100824000000fb000004b100100798002c00370002
:10083400ce409000f0c4b30080cf50000b003400d1
:10084400ce409000f0c5b30080cf500007003c00bc
:1008540050002000000f78004e4090000000fb0084
:100864000005b100100798001d003700ce4090002d
:10087400f0c5b30080cf50000b003400ce40900090
:10088400f0c6b30080cf500007003c006000200099
:10089400000f78004e4090000000fb000006b100fd
:1008a400100798000e003700ce409000f0c6b30049
:1008b40080cf50000a003400ce409000d0c7b3006f
:1008c40080cf500006003c0070002000000f78002c
:1008d4004e4090000000fb000007b1001007980094
:1008e4001e0190009e0078001000200052ff0700b7
:1008f4000080fa00000006000800fa0020079800b3
:10090400310798003e009000e10f500003003200d0
:10091400e20f5000070032000b0037002e00900059
:100924001dff0700700010000000d10010079800a0
:10093400050037002e00900017ff0700700010001c
:1009440010079800000000000000eb00000f780082
:100954000300370000c2b3005fff07001e0fe8006a
:100964001e0090009e007800808f5000f9ff350033
:100974000000eb00000f7800060037001e0078002e
:10098400ae009000008040001040780052ff070045
:100994001e0fe8001e007800ae00900000804000aa
:1009a400104078000004e000f4ff3a000080fa00f0
:1009b400000006000000fa00120020008000eb0096
:1009c4000000eb001cff07000080fa000000060096
:1009d4000000fa0000fc2f004016880000a62e003c
:1009e4000100200056000700310020000000eb0049
:1009f400effe070000e22400010020005000070081
:100a0400310020000000eb00e9fe0700001920007f
:100a1400010020004a000700310020000000eb0024
:100a2400e3fe0700210020000000eb00e0fe0700c9
:100a340082002000210020000000eb00fefe0700e1
:100a4400820020008000eb000000eb00fafe0700ab
:100a5400d8ff0700620020008000eb000000eb00dc
:100a6400f5fe0700f20020008000eb000000eb0020
:100a7400f1fe07000080fa00000006000000fa0002
:100a84000080eb0060198800f0f72f004016880002
:100a940000ff2f00001688009001200040118800fc
:100aa4002222ef000000280000118800113a800083
:100ab400f00b20000081600060042000710520001c
:100ac40023742000804978008149780082497800a5
:100ad4002135800000fe2f00008060000030a0005f
:100ae4002035880031368000f00f2e0080806000b1
:100af400003020000100700030368800103a800079
:100b0400000178000260a00060042000710520004c
:100b14002374200080497800814978008249780054
:100b24002342a8009580a8008580a900c402a800db
:100b34001000200020118800c402a900ffff370024
:020000040000fa
:100b4400f03fb1000180b10006003500ee0309005a
:100b540000000000403fb1000180b100fbff3d00f8
:100b64001000b000203fb0000200350000800900f2
:080b7400000000000000060073
:020000040000fa
:020000040001f9
:0457f400fffc0000b6
:020000040000fa
:020000040001f9
:0457f8009f8100008d
:020000040000fa
:020000040001f9
:0457fc007f3f0000eb
:00000001FF
