:020000040000fa
:080000000002040000000000f2
:020000040000fa
:0400080022030000cf
:020000040000fa
:04000c0022030000cb
:020000040000fa
:0400100022030000c7
:020000040000fa
:0400140022030000c3
:020000040000fa
:0400180022030000bf
:020000040000fa
:04001c0022030000bb
:020000040000fa
:0400200022030000b7
:020000040000fa
:0400240022030000b3
:020000040000fa
:0400280022030000af
:020000040000fa
:04002c0022030000ab
:020000040000fa
:0400300022030000a7
:020000040000fa
:0400340022030000a3
:020000040000fa
:04003800220300009f
:020000040000fa
:04003c00220300009b
:020000040000fa
:040040002203000097
:020000040000fa
:040044002203000093
:020000040000fa
:04004800220300008f
:020000040000fa
:04004c00220300008b
:020000040000fa
:040050002203000087
:020000040000fa
:04005400d4020000d2
:020000040000fa
:04005800cc020000d6
:020000040000fa
:04005c00220300007b
:020000040000fa
:040060002203000077
:020000040000fa
:040064002203000073
:020000040000fa
:04006800220300006f
:020000040000fa
:04006c00220300006b
:020000040000fa
:040070002203000067
:020000040000fa
:040074002203000063
:020000040000fa
:04007800220300005f
:020000040000fa
:04007c00220300005b
:020000040000fa
:040080002203000057
:020000040000fa
:040084002203000053
:020000040000fa
:04008800220300004f
:020000040000fa
:04008c00220300004b
:020000040000fa
:040090002203000047
:020000040000fa
:040094002203000043
:020000040000fa
:04009800220300003f
:020000040000fa
:04009c00220300003b
:020000040000fa
:0400a0002203000037
:020000040000fa
:0400a4002203000033
:020000040000fa
:0400a800220300002f
:020000040000fa
:0400ac00220300002b
:020000040000fa
:0400b0002203000027
:020000040000fa
:0400b4002203000023
:020000040000fa
:0400b800220300001f
:020000040000fa
:0400bc00220300001b
:020000040000fa
:0400c0002203000017
:020000040000fa
:0400c4002203000013
:020000040000fa
:0400c800220300000f
:020000040000fa
:0400cc00220300000b
:020000040000fa
:0400d0002203000007
:020000040000fa
:0400d4002203000003
:020000040000fa
:0400d80022030000ff
:020000040000fa
:0400dc0022030000fb
:020000040000fa
:0400e00022030000f7
:020000040000fa
:0400e40022030000f3
:020000040000fa
:0400e80022030000ef
:020000040000fa
:0400ec0022030000eb
:020000040000fa
:0400f00022030000e7
:020000040000fa
:0400f40022030000e3
:020000040000fa
:0400f80022030000df
:020000040000fa
:0400fc0022030000db
:020000040000fa
:0401000022030000d6
:020000040000fa
:0401040022030000d2
:020000040000fa
:0401080022030000ce
:020000040000fa
:04010c0022030000ca
:020000040000fa
:0401100022030000c6
:020000040000fa
:0401140022030000c2
:020000040000fa
:0401180022030000be
:020000040000fa
:04011c0022030000ba
:020000040000fa
:0401200022030000b6
:020000040000fa
:0401240022030000b2
:020000040000fa
:0401280022030000ae
:020000040000fa
:04012c0022030000aa
:020000040000fa
:0401300022030000a6
:020000040000fa
:0401340022030000a2
:020000040000fa
:04013800220300009e
:020000040000fa
:04013c00220300009a
:020000040000fa
:040140002203000096
:020000040000fa
:040144002203000092
:020000040000fa
:04014800220300008e
:020000040000fa
:04014c00220300008a
:020000040000fa
:040150002203000086
:020000040000fa
:040154002203000082
:020000040000fa
:04015800220300007e
:020000040000fa
:04015c00220300007a
:020000040000fa
:040160002203000076
:020000040000fa
:040164002203000072
:020000040000fa
:04016800220300006e
:020000040000fa
:04016c00220300006a
:020000040000fa
:040170002203000066
:020000040000fa
:040174002203000062
:020000040000fa
:04017800220300005e
:020000040000fa
:04017c00220300005a
:020000040000fa
:040180002203000056
:020000040000fa
:0402080022030000cd
:020000040000fa
:04020c0022030000c9
:020000040000fa
:0402100022030000c5
:020000040000fa
:0402140022030000c1
:020000040000fa
:0402180022030000bd
:020000040000fa
:04021c0022030000b9
:020000040000fa
:0402200022030000b5
:020000040000fa
:0402240022030000b1
:020000040000fa
:0402280022030000ad
:020000040000fa
:04022c0022030000a9
:020000040000fa
:0402300022030000a5
:020000040000fa
:0402340022030000a1
:020000040000fa
:04023800220300009d
:020000040000fa
:04023c002203000099
:020000040000fa
:040240002203000095
:020000040000fa
:040244002203000091
:020000040000fa
:04024800220300008d
:020000040000fa
:04024c002203000089
:020000040000fa
:040250002203000085
:020000040000fa
:040254002203000081
:020000040000fa
:04025800220300007d
:020000040000fa
:04025c002203000079
:020000040000fa
:040260002203000075
:020000040000fa
:040264002203000071
:020000040000fa
:04026800220300006d
:020000040000fa
:04026c002203000069
:020000040000fa
:040270002203000065
:020000040000fa
:040274002203000061
:020000040000fa
:04027800220300005d
:020000040000fa
:04027c002203000059
:020000040000fa
:040280002203000055
:020000040000fa
:040284002203000051
:020000040000fa
:04028800220300004d
:020000040000fa
:04028c002203000049
:020000040000fa
:040290002203000045
:020000040000fa
:040294002203000041
:020000040000fa
:04029800220300003d
:020000040000fa
:04029c002203000039
:020000040000fa
:0402a0002203000035
:020000040000fa
:0402a4002203000031
:020000040000fa
:0402a800220300002d
:020000040000fa
:0402ac002203000029
:020000040000fa
:0402b0002203000025
:020000040000fa
:0402b4002203000021
:020000040000fa
:0402b800220300001d
:020000040000fa
:0402bc002203000019
:020000040000fa
:0402c0002203000015
:020000040000fa
:0402c4002203000011
:020000040000fa
:0402c800220300000d
:020000040000fa
:0402cc002203000009
:020000040000fa
:0402d0002203000005
:020000040000fa
:0402d4002203000001
:020000040000fa
:0402d80022030000fd
:020000040000fa
:0402dc0022030000f9
:020000040000fa
:0402e00022030000f5
:020000040000fa
:0402e40022030000f1
:020000040000fa
:0402e80022030000ed
:020000040000fa
:0402ec0022030000e9
:020000040000fa
:0402f00022030000e5
:020000040000fa
:0402f40022030000e1
:020000040000fa
:0402f80022030000dd
:020000040000fa
:0402fc0022030000d9
:020000040000fa
:0403000022030000d4
:020000040000fa
:0403040022030000d0
:020000040000fa
:0403080022030000cc
:020000040000fa
:04030c0022030000c8
:020000040000fa
:0403100022030000c4
:020000040000fa
:0403140022030000c0
:020000040000fa
:0403180022030000bc
:020000040000fa
:04031c0022030000b8
:020000040000fa
:0403200022030000b4
:020000040000fa
:0403240022030000b0
:020000040000fa
:0403280022030000ac
:020000040000fa
:04032c0022030000a8
:020000040000fa
:0403300022030000a4
:020000040000fa
:0403340022030000a0
:020000040000fa
:04033800220300009c
:020000040000fa
:04033c002203000098
:020000040000fa
:040340002203000094
:020000040000fa
:040344002203000090
:020000040000fa
:04034800220300008c
:020000040000fa
:04034c002203000088
:020000040000fa
:040350002203000084
:020000040000fa
:040354002203000080
:020000040000fa
:04035800220300007c
:020000040000fa
:04035c002203000078
:020000040000fa
:040360002203000074
:020000040000fa
:040364002203000070
:020000040000fa
:04036800220300006c
:020000040000fa
:04036c002203000068
:020000040000fa
:040370002203000064
:020000040000fa
:040374002203000060
:020000040000fa
:04037800220300005c
:020000040000fa
:04037c002203000058
:020000040000fa
:040380002203000054
:020000040000fa
:100400004f8f20000e7f22000e01880000000000a8
:10041000000020000000e000020032000001200087
:100420002002880014000700880007000000e00098
:1004300003003a00a06b21000100200002003700f9
:100440000000200001002000810f70000100320038
:1004500014000700000020000000e000020032004d
:1004600000000200000000008816020000000000ea
:100470000040da000000fe004440a9008001200096
:100480000000e0000300320000002000a00188000e
:100490004440a800000006008a1f78008b1f7800e7
:1004a0000000060091018800800478000000eb0045
:1004b0001a003700e284440032a0b4009905ba0063
:1004c000e284440032a0b4009906ba00e2844400f9
:1004d00032a0b4000006eb00476fde00fd07b2005b
:1004e000636ce10003003a00ebff07000000eb0043
:1004f0000a003700606ce10004003a00005deb0088
:100500008b05e900fdff3e00040037006168e10053
:10051000010032000086eb000b00070019c7ba008b
:100520001905ba000e04e00003003a000a00e000da
:10053000e0ff3a0000000600fe07b2009e018800be
:100540008a047800f5ff3700395dba008b05e900b1
:100550000c003200295dba008b05e900080032006a
:100560000c00e00003003a00e284440032a0b40032
:10057000f5ff370019ddba008b05e900faff3a00f4
:100580008904e800e184440032a0b40000000600c1
:1005900000000000000000000000fa008580a900b3
:1005a0000080fa00004006003600f800809fbe0080
:1005b000829fbe00849fbe00869fbe000000fa009e
:1005c00005c8bf000004e00004003a00520020000b
:1005d0008000eb00208120001d000700301180000a
:1005e0000040780006e8b70005c8bf000080fb00a7
:1005f0006280200012417800218120008270780002
:1006000005c8bf000040e80005e8b70005c8bf0006
:10061000e54f500001003a000568ef0010c0b3003c
:100620000ee8b7008560a9000080fa004f03be0005
:100630004f02be004f01be004f00be003600f90061
:10064000004006000040da000000fe000000050047
:100650008001780002003700815978000201e9002a
:100660000200e000fcff3a00000006000200370034
:100670000204e0000b0032008101780000027800e3
:1006800030417800b14f5100f9ff320010002000d6
:1006900014427800934f5200030031000080eb00b9
:1006a000000006000000eb0000000600800078005b
:1006b000010178003104e000fdff3a000000510024
:1006c00000000600881f7800020478000801780006
:1006d000d6010700080040004f0478000000060023
:1006e0000000fa00881f780000047800ea815700b3
:1006f0003fb99700880078002036200007000700e7
:100700000000e000020035008040eb00017478003a
:100710004f0478000080fa00000006006200fa0032
:10072000889fbe008a1f7800000578008104780049
:10073000020478008300780080f92f000f00400049
:10074000b80307009a979f00a9979f000000eb004d
:10075000b09f9f001885fb008a04fb000a05ea0091
:100760004f55de0050022000808f54000d003200f3
:10077000e10f55000b003a000a017800880078006c
:100780002f9097009f91970003000100a0979f0072
:100790000000e0008e0032003f9897000000e80063
:1007a000b09f9f000a04440050022000808f540034
:1007b000040032000900e000e6ff3a003f9897008d
:1007c000840037000000eb00909f9f00809f9f00f7
:1007d000f0979f00e0979f00d0979f00c0979f00e1
:1007e00007003700e18e20000100500000004000ab
:1007f000218e200061007800df98970001007000d2
:10080000d09f9f008804780009047800384578005c
:100810008a00fb00e08e20008b0107000000e00052
:10082000f0ff3a00a1c2b300814f55000e003a001c
:10083000cf8897000180e900c08f9f0010007800ea
:10084000c09f9f000000e00005003d000000ea009e
:10085000c09f9f005f9897000020a000d09f9f003e
:100860000904e8000f003700c09f9f000000eb0064
:1008700005003700f2ff2700820f5000020032000f
:100880006a01b900028040000904780088047800f9
:10089000b900fb000103b100e98f5000f5ff3600fd
:1008a000c09f9f00e0c2b300984f100002003200ca
:1008b0000080eb0019003700a0c2b300d84f100031
:1008c00007003a00cf8897000180e900c08f9f00a1
:1008d00010007800a09f9f000804e8001000370077
:1008e0000000eb00a09f9f00880078000500370003
:1008f000f3ff2700830f5000020032006a02b900a4
:100900000400410001047800880078003101fb00f8
:100910000203b100e90f5100f5ff3600a09f9f00d0
:10092000984478008900fb00a08d20004601070054
:100930000000e000020032000804e8000100370077
:100940008044eb00c97f9f0080c6b30080cf540075
:1009500004003a0098cf14000a003a0066405000a4
:1009600006003700c0c6b30080cf540005003a002f
:1009700098cf140003003a0065404000c07f9f00fc
:100980000804e8001801fb00e3fb2f008f81410001
:1009900081f92f008f804000a0f92f000f00400048
:1009a000100007000000e00009003a00e1fb2f0002
:1009b0008f804000a0f92f000f0040005d0207006b
:1009c0000000e000020035000804e80061ff370085
:1009d0000080eb004f0578004f04be000080fa0055
:1009e00000000600889fbe008a9fbe00e4c6b300d8
:1009f000844f5100be00320010003c006b42520098
:100a0000844f51001800320005003c0054c2b3006e
:100a1000844f5100f600320084c5b3000f00370048
:100a200044c6b300844f51001400320065424200b6
:100a3000844f5100f1003a001000370004c7b300a2
:100a4000844f5100dd0032005600350065424200ff
:100a5000844f51005300320063424200844f5100e2
:100a6000e6003a004f0037001181e9008208780063
:100a7000f000900012417800de0037002062900004
:100a8000c5c6b300854f520007003a0091027800b6
:100a900064825200840878001402be004fabde006e
:100aa000860378001400370015c7b300854f520045
:100ab00003003a0011047800680254000500370072
:100ac000a5c6b300854f520006003a009104780095
:100ad00068825400840878005403be004402be00bb
:100ae000050037001182e9008408780014027800bc
:100af000cfa2de00612bb9000498be000690be00b4
:100b0000a060900088c6b30088cf50000d0032006e
:100b100028c6b30088cf500004003a000402fb004e
:100b2000cfa2de00612bb9000800370048c7b30030
:100b300088cf5000030032006644440088cf500044
:100b400004003a00cfa2de00612bb9000498be0079
:100b50000690be003002be002003be00f0009000f0
:100b6000e00f5200e08f5a00e00f5b00e08f5b0067
:100b700002003d00d4c2b30008003700001290000c
:100b80000418a30002003200b4c2b300030037000f
:100b90000408a3005100320004c2b30084f17800bd
:100ba0004c00370020629000c5c6b300854f52004c
:100bb00008003a00110578006402550084087800a6
:100bc0001404be006055b8000802be000a03be004f
:100bd0001400370015c7b300854f520003003a00d8
:100be000910478006882540005003700a5c6b30060
:100bf000854f520006003a00110578006802550042
:100c0000840878005403be004402be00050037008b
:100c10001182e90084087800140278008002eb0059
:100c20006033b8000498be000690be00a06090003b
:100c300088c6b30088cf50000d00320028c6b3002c
:100c400088cf500004003a000482fb008002eb00d1
:100c50006033b8000800370048c7b30088cf5000a1
:100c6000030032006644440088cf500004003a007c
:100c70008002eb006033b8000498be000690be000e
:100c8000801090000138a300140032003002be0032
:100c90002003be00e00f5200e08f5a00e00f5b001f
:100ca000e08f5b000d00320081c7b300814f51001f
:100cb0000300320081c5b300814f510007003a00a4
:100cc000f000900004c3b30084f178008100e800d4
:100cd00082f178008100e80071009800f000900037
:100ce0008181410063009800824078003e00370017
:100cf000a0619000c4c6b3001181e90084cf510007
:100d0000220032000a003c006442520084cf5100ad
:100d10002500320004c2e80084cf510013003200e5
:100d20006842520084cf51001e003a000a0037008a
:100d300044c7b30084cf51001b003200664242001a
:100d400084cf5100180032006942520084cf510014
:100d500014003a00050037008208780092007800fd
:100d600040589000804878002c00370082087800b6
:100d700092007800600a9000cfa2de00612bb900db
:100d80008498be008690be00240037008208780058
:100d90009200780060099000cf91de008288be004a
:100da0001e0037001181e900820878009200780067
:100db0006008900080087800180037001181e90071
:100dc0008208780012027800cfa2de00612bb90001
:100dd0000498be000690be00f000900081814100a2
:100de0006300980081c7b300230007000b003700a1
:100df000f000900082f1780006003700f0009000cb
:100e0000818141000204e00001003a0052c2b300b7
:100e1000824978008100e800710098000000eb0032
:100e20004f05be004f04be000000060080017800a0
:100e300002003700b15978000201e9000200e00029
:100e4000fcff3a0000000600020037000304e00047
:100e5000060032000001780002007800b0417800fe
:100e600081cf5100f9ff3a00010037000001eb008b
:100e70000200780000000600fc874700889fbe0043
:100e80008a9fbe008c9fbe008e1f780000067800ef
:100e900080c5b30080cf50000a0032007740400088
:100ea00080cf50000a0032006940400080cf5000df
:100eb0000b003200908c200080bf9f00ae0020000d
:100ec0000a003700828b200082bf9f000600370097
:100ed000938c200083bf9f008e002000030037000a
:100ee000948c200084bf9f000e0120003c02be00b5
:100ef0002c03be000605be000404be0040c6b300bd
:100f000080cf5000030032006540400080cf500089
:100f10000b003a00e00f5200e08f5a00e00f5b0038
:100f2000e08f5b0006003d006000b8006011b80073
:100f3000040450008584580006055900878559002f
:100f4000e80f57000400320040002000f00f570067
:100f500038003a000100370030002000e00f540054
:100f6000e08f5c00e00f5d00e08f5d0004003a0060
:100f7000dc0890008d0120000100e0000600320036
:100f80008e00e900888060008fba9700e5c0780085
:100f9000f1ef9f007d012000800078008100e900d2
:100fa000050033008b05d1000a85d3008984d30066
:100fb0000884d300f9ff3700089ebe000a96be00e1
:100fc000120037008d06e9008e00e9008480600081
:100fd0000fb99700e2c1780082fd2f000f01410098
:100fe00003f17e00800078008100e90005003300f5
:100ff0008783d1000683d3008582d3000482d30087
:10100000f9ff3700049ebe000696be003c02be00fb
:101010002c03be00e00f5200e08f5a00e00f5b008f
:10102000e08f5b008b0034000d00e000e5ff3c002a
:10103000880037002c60900081c6b300814f5000bb
:101040000b00320006003c000004e0000800320003
:10105000e6c05000814f50004e003a0004003700b7
:10106000c1c6b300814f50004a003a00210037004a
:101070000800e00004003a005c0890008d012000a8
:101080000000e00006003200110009000e84d800c4
:101090000fb99700e2c07800f1ef9f007d012000ba
:1010a000110009000e84d8000a0037001100090061
:1010b0000e04d8008d06e9000e81b9000204540028
:1010c0008fb8970061417c0081fd2f008f80400028
:1010d00082f07e00000478000800e0000200320088
:1010e0000d00e000f1ff3c00cfc4de00614db9000f
:1010f00025003700e00f5400e08f5c0004003a0048
:101100005c0890008d0120000000e0000700320024
:101110006171b9000800be00630107008fb9970034
:10112000e3417800f3ef9f007d0120006171b90079
:101130000800be004c0107000b0037006171b900c8
:101140000800be00390107008d06e90000f1b90072
:10115000020454000fba9700e4427c0084fd2f0083
:101160000f02420005f27e000004be00e00f5000b6
:10117000e08f5800020032000d00e000efff3c005d
:101180004fcdde008a057800089ebe000a96be009c
:1011900030003700e00f5400e08f5c00e00f5d008e
:1011a000e08f5d0004003a005c0890008d01200093
:1011b0000000e000090032006172b900612bb90043
:1011c0000800be000a01be00da0107000fba97004e
:1011d00064427800f4ef9f007d0120006172b90045
:1011e000612bb9000800be000a01be00ca01070059
:1011f0000d0037006172b900612bb9000800be0014
:101200000a01be00cf0107008d06e90000f2b90017
:10121000040454008fba970065427c0085fd2f00be
:101220008f82420084f27e00009ebe000296be00c5
:101230003c04be002c05be00e00f5400e08f5c00b3
:10124000e00f5d00e08f5d00020034000d00e00063
:10125000e8ff3c00e80f570010003a000c10900027
:101260000038a3000d003200f78f560006003e0044
:1012700085fd2f008f824200e5c07e0000c3b300d1
:1012800080cf5000050032008d06e90002c3b30094
:1012900081fd2f008f80400082f07e007881160053
:1012a000120e98006c00900083fd2f008f8141008a
:1012b0008d804100ddfe07001c089000dc089000d6
:1012c000810f500006003d0000805000000e980085
:1012d0000c1090000040a100001698000f0037008d
:1012e0000100e0000d003d008c109000f4806000d3
:1012f000f08f500009003a007c099000fc0090003b
:10130000810051000c099000828050000080500044
:101310004240a90001003400000e98004f077800f9
:101320004f06be004f05be004f04be00cf01b10006
:10133000000006000400fa00889fbe008a9fbe00dd
:101340008c1f78000004780001067800f80d9000ea
:101350007800900080855500080890008085550031
:101360001808900080855500280890008085550059
:101370003808900080855500480890008085550009
:101380000002220090bf9f0000032300a0bf9f0027
:10139000081090000028a30015003a000b00e000a0
:1013a000130034000b0578008a047800e20f550022
:1013b0000100360029002000c801900009017800d2
:1013c000ee80570058009000030001005004980080
:1013d0000000e0008c003200680890000900400026
:1013e000600c9800090555004240a900eeff3c0042
:1013f000780190000200e0000c003400c801900069
:101400008c00780058009000030001005004980000
:101410008080eb000000e0007c003200e8089000d3
:101420007800900000804000600c9800880c9000cc
:101430000900e0001100340009057800e28f540033
:10144000010036002a002000c80190000a0178003f
:10145000ec805700580090000300010050049800f1
:101460000000e00068003200680890000a004000b8
:10147000600c98008a845400edff37001809900032
:101480000200e0000c003400c8019000e800900069
:101490005800900003000100500498008080eb0089
:1014a0000000e00059003200e808900018089000a1
:1014b00000804000600c9800a80c90000900e0003b
:1014c0001100340009057800e28f54000100360055
:1014d0002a002000c80190000a017800ec80570023
:1014e0005800900003000100500498000000e00044
:1014f00045003200680890000a004000600c980027
:101500008a845400edff3700380990000200e000a3
:101510000e003400e8009000180890008080400021
:10152000c80190005800900003000100500498008a
:101530008080eb000000e00034003200e8089000fa
:101540003808900000804000600c9800c80c9000a3
:101550000900e0001100340009057800e28f540012
:10156000010036002a002000c80190000a0178001e
:10157000ec805700580090000300010050049800d0
:101580000000e00020003200680890000a004000df
:10159000600c98008a845400edff3700081090001a
:1015a0008000eb000028a300180032000b00e000d0
:1015b000160034008b04780009057800e28f54008f
:1015c000010036002a002000c80190000a017800be
:1015d000ee8057005800900003000100500498006e
:1015e0000000e00008003200680890000a00400097
:1015f000600c98008a8454004240a900eeff3c0031
:101600008000eb00010037008080eb0001007800d3
:101610004f0678004f05be004f04be000080fa0060
:10162000000006000108780000000600839f6800a3
:101630000100e00002003d0060001000e0801800a2
:101640000300e00002003d0060011100e08119008c
:10165000050007004f00e00002003b0060001000a2
:10166000e0801800000006006022b800060220009a
:101670000000d0008180d2000482d2008582d20096
:101680000000a0000202520083825a0003003100d1
:101690000202420083824a000000a1000603e90022
:1016a000f3ff3a0000000600efff07000400be0051
:1016b00000000600889fbe008a9fbe0030044200e2
:1016c000b0844a0030054b0090854b006000b100ab
:1016d0000898be000a90be000440e10005c8e10081
:1016e00006d0e10007d8e1000200310068004000a8
:1016f0001008e8004f05be004f04be0000000600c1
:10170000889fbe008a9fbe003004be002005be0038
:101710000418540005985c0006185d0007985d00e9
:10172000110020000440e10005c8e10006d0e100fe
:1017300007d8e100010039008000eb00108810009c
:101740004f05be004f04be00000006001200fa0064
:10175000889fbe008a9fbe008c9fbe00e0b79f009e
:10176000f1b79f0082bf9f0093bf9f000605be0098
:101770000404be000000eb00d0b79f00c0b79f007c
:10178000b0b79f00a0b79f0090b79f000006eb0086
:101790005fb19700cfb09700820141003fb0970042
:1017a0000200e00004003d00370007007e80570083
:1017b000c0ff070003003700330007007e8057009a
:1017c000cfff0700dfb697000d00e0000c003500ea
:1017d0006fb29700ffb297000fbb97009fbb9700b7
:1017e00010002000010020006011b800000272000b
:1017f0008182720002037300838373001b00070061
:101800000c06e80001042000810f5600e0ff3a00ba
:101810000d00e00004003d000802be000a03be0007
:101820007e805700a3ff07005fa897000000e0003c
:1018300005003a001fb29700afb297003fb3970080
:10184000cfb39700090007006fb09700ffb0970073
:101850000fb997009fb997004f06be004f05be0015
:101860004f04be000080fa000000060001000700df
:1018700000000600a4b79f00b5b79f00c6b79f0041
:10188000d7b79f00000006004f09de00828171007b
:10189000b3b79f004f01de0081804000828070005e
:1018a000a1b79f008fb097004f09de0000004000f5
:1018b0000200700090b79f007fa897004f01de00e4
:1018c000818040008280700081b79f000d0007007a
:1018d0004f3ade000000400004007000f0af9f00af
:1018e000080007000402420085824a0006034b00fc
:1018f00087834b00dfff07000802be000a03be001b
:10190000000006002fb29700bfb297004fb39700b8
:10191000dfb3970000000600881f78001800200041
:10192000881f780089ff07008f87e9004f0478003f
:1019300000000600801feb0084ff07008f87e9008e
:1019400000000600889fbe008a9fbe00e00f500086
:10195000e08f5800e00f5900e08f59000c003d0067
:101960006044b8006055b8000000540081805c00fd
:1019700002015d0083815d00180020001500070052
:1019800008003d00180007000004eb0005003700c8
:101990000004eb000f00070002003d0012000700ea
:1019a00018002000dcff07000800e00006003200fd
:1019b0006022b8006033b8000000520081805a00f5
:1019c00002015b0083815b004f05be004f04be0037
:1019d00000000600e00f5200e08f5a00e00f5b00ad
:1019e000e08f5b00000006006044b8006055b8005e
:1019f0000402540085825c0006035d0087835d005d
:101a000000000600889fbe008a9fbe008c1f7800e1
:101a1000e00f5000e08f5800e00f5900e08f5900b0
:101a20000d003d006044b8006055b800000054004f
:101a300081805c0002015d0083815d001c0020004c
:101a40000820e10009a8e1000ab0e1000bb8e100bc
:101a50000d003d00080037000006eb00e00f5200cb
:101a6000e08f5a00e00f5b00e08f5b0006003d0056
:101a70006044b8006055b8000402540085825c00e0
:101a800006035d0087835d00aaff07000c00e000ed
:101a9000060032006022b8006033b8000000520037
:101aa00081805a0002015b0083815b004f06780051
:0c1ab0004f05be004f04be000000060001
:020000040000fa
:101abc007c7c0000004800004954000021210000fb
:101acc00004d000049530000532100000028000085
:101adc00256400002c250000642900000000000093
:020000040000fa
:101aec000000fa009001200040118800aa40a800d4
:101afc00aa20a900aa00a900a9c0a800a9a0a90011
:101b0c00a980a9002222ef00000028000011880003
:101b1c00113a8000f00b200000816000600420006e
:101b2c0071052000237420008049780081497800d9
:101b3c00824978002135800000fe2f000080600073
:101b4c000010a0002035880001368000f00f2e0018
:101b5c00808060000030200001007000003688009a
:101b6c00103a8000000178000260a00060042000a0
:101b7c007105200023742000804978008149780089
:101b8c00824978002342a8009580a8008580a9008e
:101b9c009560a8008560a9000080fa00000006008e
:101bac000200fa00004f78000000000011118000c4
:101bbc0000102000008060000000e000fbff3200fd
:101bcc001e00fb00201188000080fa0000000600b7
:101bdc000400fa00100798000040eb00004f78005a
:101bec00060037001e80fb009e0090000080400025
:101bfc0010407800eaff07001e4fe8001e80fb0033
:101c0c009e00900000804000104078000004e0002e
:101c1c00f4ff3a000080fa00000006000000fa0011
:101c2c0040002000201088000000220030108800a6
:101c3c0007e2a8000080fa00000006000000fa008d
:101c4c000602a80000000000401080006800600040
:101c5c000000e000fcff3200000000000080fa00f1
:101c6c00000006000000fa000622a8000000000098
:101c7c0040108000680060000000e000fcff3200b3
:101c8c00000000000080fa00000006000000fa00ce
:101c9c000642a800000000004010800070006000a8
:101cac000000e000fcff32000080fa00000006009b
:101cbc000000fa0006a2a9000682a800000000009d
:101ccc000080fa00000006000000fa0006a2a8003e
:101cdc000682a80000fa200001002000440407003e
:101cec000080fa00000006000200fa00004f7800a5
:101cfc001e80fb00101088000000000041108000c6
:101d0c0000002400008060000000e000fbff3a00af
:101d1c00401080004f00de00004078000080fb0087
:101d2c000080fa00000006000000fa000662a8001d
:101d3c000000000040108000620060000000e00025
:101d4c00fcff320000fa20000100200028040700ec
:101d5c00001080000080fa00000006000400fa0069
:101d6c0020479800314798002e4090000080fb00df
:101d7c004400dd00804078003e40900000c07000c0
:101d8c00004f7800ae40900000cfb30080c06000e0
:101d9c003e40900000c0700010479800a7ff07005d
:101dac00e0c4b300d0ff07001e409000ceff070038
:101dbc001e409000c040b300cbff07001e409000b7
:101dcc000034a000c8ff07001e407800c6ff0700c3
:101ddc009e4078006cc07000c3ff07001e40780066
:101dec000034a000c0ff0700a8ff070000e2240099
:101dfc0001002000fe0307000080fa00000006002e
:101e0c000000fa0085ff070000a62e00010020004c
:101e1c00f70307008040eb0020c0b300cfff0700a2
:101e2c0000e2240001002000f10307008040eb00d9
:101e3c0080c2b300c9ff070000e2240001002000ab
:101e4c00eb0307008040eb0010c0b300c3ff07009a
:101e5c0000e2240001002000e50307008040eb00b5
:101e6c0060c0b300bdff070000e2240001002000a9
:101e7c00df0307008040eb00f0c0b300b7ff0700a2
:101e8c0000e2240001002000d90307000080fa00c2
:101e9c00000006000200fa00004f78001e40780097
:101eac0011c0b300adff07000080fa00000006006f
:101ebc000200fa00000f7800040037001e007800c2
:101ecc00104078001e0fe800f2ff07001e0078009b
:101edc00104078000004e000f8ff3a000080fa009f
:101eec00000006000000fa008040eb0010c0b300b8
:101efc009aff070000c4290001002000bc03070062
:101f0c000080fa00000006000000fa008040eb00a0
:101f1c0000c8b30091ff07000080fa000000060023
:101f2c000000fa008040eb0000ccb3008bff0700f0
:101f3c000080fa00000006000000fa008040eb0070
:101f4c0040c9b30085ff07000080fa0000000600be
:101f5c000000fa008040eb0040cdb3007fff07008b
:101f6c000080fa00000006000200fa00004f780022
:101f7c00114798001e4090000080fb000000e80014
:101f8c0080407800600020000009dd001e409000b9
:101f9c008080fb00b0aa2a000008b8000100d10024
:101fac0080407800400920000088b90000007800cb
:101fbc0000407800004041001e4040000040e90015
:101fcc008040eb0065ff07000080fa00000006006f
:101fdc000000fa0004c8bf00f34f50000a003e0096
:101fec0004c8bf004045b00004e8b70041802000a1
:101ffc009140780000c8b30000c040008040eb0066
:10200c0056ff07003d0037004180200091407800ca
:10201c00f0c3b30080cf5000110036004180200087
:10202c009140780030c5b30080cf50000c003e00ca
:10203c00418020009140780000ccb30000c04000eb
:10204c0004e8b700418020009140780000c8b3003c
:10205c0000c040008040eb0040ff07002700370025
:10206c0004c8bf00f34f50000f0036004180200021
:10207c009140780070c2b30080cf50000a003e003f
:10208c0004c8bf00c042b00004e8b7004180200083
:10209c009140780000c8b30000c040008040eb00c5
:1020ac002eff07001500370041802000914078007a
:1020bc0030c5b30080cf50001000360041802000a6
:1020cc009140780070c6b30080cf50000b003e00ea
:1020dc00418020009140780000ccb30000c040004b
:1020ec0004e8b700418020009140780000c8b3009c
:1020fc0000c040008040eb0018ff07000080fa0091
:10210c00000006000000fa0004c8bf00f34f5000a6
:10211c000a003e0004c8bf000044b00004e8b70049
:10212c00418020009140780000c8b30000c04000fe
:10213c008040eb0009ff07003d0037004180200084
:10214c0091407800f0c3b30080cf500011003600ee
:10215c00418020009140780030c5b30080cf500002
:10216c000c003e00418020009140780040cdb3002f
:10217c0000c0400004e8b700418020009140780086
:10218c0000c8b30000c040008040eb00f3fe070025
:10219c002700370004c8bf00f34f50000f00360073
:1021ac00418020009140780070c2b30080cf500075
:1021bc000a003e0004c8bf000044b00004e8b700a9
:1021cc00418020009140780000c8b30000c040005e
:1021dc008040eb00e1fe0700150037004180200035
:1021ec009140780030c5b30080cf5000100036000d
:1021fc00418020009140780070c6b30080cf500021
:10220c000b003e004180200091407800c0cab30012
:10221c0000c0400004e8b7004180200091407800e5
:10222c0000c8b30000c040008040eb00cbfe0700ac
:10223c000080fa00000006000000fa0004c8bf008d
:10224c000004e00006003a0080c5b30004e8b700c3
:10225c008040eb0080cdb300c0fe070028003700a3
:10226c00418020009140780000c4b30080cf500022
:10227c0006003a0040c0b30004e8b7008040eb0011
:10228c0040c8b300b5fe07001d00370004c8bf00ee
:10229c00f44f500006003a0040c4b30004e8b70005
:1022ac008040eb0040ccb300acfe070014003700bc
:1022bc00418020009140780040c5b30080cf500091
:1022cc0006003a0080c1b30004e8b7008040eb0080
:1022dc0080c9b300a1fe07000900370004c8bf0085
:1022ec000040e90004e8b7004180200091407800ec
:1022fc0000c8b30000c040008040eb0097fe070010
:10230c000080fa00000006000000fa0004c8bf00bc
:10231c00e44f500006003a0000c4b30004e8b700d4
:10232c008040eb0000ccb3008cfe07002700370088
:10233c00418020009140780040c4b30080cf500011
:10234c0006003a0040c1b30004e8b7008040eb003f
:10235c0040c9b30081fe07001c00370004c8bf0051
:10236c00f84f500006003a0040c5b30004e8b7002f
:10237c008040eb0040cdb30078fe0700130037001f
:10238c00418020009140780080c5b30080cf500080
:10239c0005003a000468ef008040eb0000c8b30071
:1023ac006efe07000900370004c8bf000040e800bb
:1023bc0004e8b700418020009140780000c8b300c9
:1023cc0000c040008040eb0064fe07000080fa0073
:1023dc00000006000200fa000040eb0010479800d5
:1023ec001b0037001e4090000040e8008040780041
:1023fc0010c0b300dcfe07000040eb00004f78007b
:10240c000d0037009e80fb001e4090000080fb00fa
:10241c00c208dd0000804000800040008081200068
:10242c000080400010007800004078000043b000ad
:10243c0098fe07001e4fe8001e407800f34f500036
:10244c00f0ff36001e4090000040e8001047980056
:10245c001e409000e34f5000e2ff36000080fa006f
:10246c00000006000400fa0020479800314798004d
:10247c000040eb00004f78002500370011c3b3007b
:10248c001ec0400083fe07000ac8bf000080fb008e
:10249c008000e9000bc8bf000080fb000000e900d1
:1024ac00c208dd00008040008000400080812000d8
:1024bc000080400011002000010878003e40900090
:1024cc00e14f50000b003a000bc8bf00e44f500026
:1024dc00030032000bc8bf000040e8000be8b70057
:1024ec00b1802000914078000ac8bf009efe070012
:1024fc00060037000ac8bf00f44f5000030032003a
:10250c000ac8bf000040e8000ae8b7001e4fe80008
:10251c002e4090009e40780080cf5000d7ff3900ad
:10252c000080fa00000006000400fa00004f78005a
:10253c0011479800224798003347980010168000e6
:10254c00610060000000e0000900320000000000a3
:10255c0010168000610060000000e000fcff3a00f3
:10256c0010c0b3000fe8b700100020006600370061
:10257c0010168000700060000000e00009003200be
:10258c000000000010168000700060000000e000e9
:10259c00fcff3a0010c0b30010e8b7001000200098
:1025ac0059003700511680000002200000806000a6
:1025bc000000e00011003200000000005116800005
:1025cc0000022000008060000000e000fbff3a00e9
:1025dc000bc8bf000de8b700b18020009140780017
:1025ec002e40900080cf5000420032000bc8bf003c
:1025fc000040e9000be8b7003e00370010168000e1
:10260c00620060000000e0001000320000000000da
:10261c0010168000620060000000e000fcff3a0031
:10262c000bc8bf000de8b700b180200091407800c6
:10263c003e40900080cf50002e0032000bc8bf00ef
:10264c000040e8000be8b7002a0037005116800064
:10265c0000082000008060000000e0001100320043
:10266c00000000005116800000082000008060006f
:10267c000000e000fbff3a000ac8bf000ce8b700fe
:10268c00a1802000914078001e40900080cf500027
:10269c00180032000ac8bf000040e8000ae8b70082
:1026ac001400370010168000640060000000e00089
:1026bc000e00320000000000101680006400600064
:1026cc000000e000fcff3a000ac8bf000ce8b700ad
:1026dc000ac8bf009e4f5000060032000ac8bf0057
:1026ec000040e9000ae8b700020037000000eb00e8
:1026fc0005003700b1802000914078000ac8bf0067
:10270c0019fe0700100020000080fa0000000600ef
:10271c000600fa0010c0b3002047980090c0b30028
:10272c003047980010c0b3004047980040c0b30039
:10273c005047980010c0b3000ce8b7000cc8bf009d
:10274c000ae8b70010c0b3000de8b7000dc8bf0011
:10275c000be8b7001068ef0010c8bf000fe8b70017
:10276c000968ef000040eb00004f780014003700c0
:10277c000040eb00104798000d0037009e80fb00d6
:10278c001e4090000080fb00c208dd00008040006d
:10279c008000400080812000008040008000eb0021
:1027ac00010878001e4090000040e8001047980097
:1027bc001e409000e34f5000f0ff36001e4fe80023
:1027cc001e407800f34f5000e9ff36000040eb004c
:1027dc00004f7800150037001e40e800804078005c
:1027ec00a0c0b300e0fd0700e0d52800b0fd070055
:1027fc001e80fb004002b000800040008081200061
:10280c000080400041002000010878001e80fb0081
:10281c008002b000800040008081200000804000d9
:10282c0041002000010878001e4fe8001e4078008f
:10283c00e34f5000e8ff360011c0b30010c0b300e6
:10284c00c9fd07000040eb00004f780040c0b3000a
:10285c0008e8b70028003700de4190004e41900098
:10286c00be4090002e4090002fff07000100370063
:10287c00000000000fc8bf000004e00003003a0095
:10288c0010c8bf000004e000f3ff32000fc8bf0007
:10289c000004e0000c003200918020009140780090
:1028ac0008c8bf00effe070008c8bf00e24f500089
:1028bc000300320008c8bf000040e90008e8b70078
:1028cc000f68ef000b00370010c8bf000004e000d9
:1028dc000800320009c8bf000080fb000000e900be
:1028ec004f00de000040780009e8b7001e4fe900f9
:1028fc001068ef001e4fe8001e407800e34f5000b8
:10290c00dbff36000080fa00000006000c00fa0025
:10291c000e68ef000040eb00004f78000040eb0029
:10292c0010479800c0c0b3002047980040c1b300c6
:10293c003047980010c0b3004047980040c0b30027
:10294c00504798002e419000a180200082487800ca
:10295c004e419000b180200082487800b180200068
:10296c00914078000ac8bf007ffd07000568ef00a2
:10297c00620020008000eb002081200031f707006e
:10298c0005003700de4190004e419000be409000a3
:10299c002e409000e4fe07000fc8bf000004e000ca
:1029ac0006003a0010c8bf000004e00003003a0023
:1029bc000ec8bf000004e000f2ff32000ec8bf00da
:1029cc000004e0006f0032000000000020812000b5
:1029dc0033f70700e40f5000fcff36000e68ef00e1
:1029ec002081200032fd0700208120002cf70700f9
:1029fc00804078000ac8bf0000c040000ae8b70059
:102a0c0011d628002081200015f707000000e000f7
:102a1c0017003a0090c4b3001efd07009e407800da
:102a2c006acf40001e4090000040e900104798001b
:102a3c0030c3b30017fd07000ac8bf000040e80010
:102a4c000ae8b7009e80fb001e4090000080fb004f
:102a5c00c208dd0000804000800040008081200022
:102a6c00008040003100200001087800a3003700ee
:102a7c0071d6280020812000f9f607000000e00044
:102a8c0003003a0070c4b30002fd07009b0037003e
:102a9c003081200010407800004fe9005081200068
:102aac00104078000040e900104798009e80fb0021
:102abc001e4090000080fb00c208dd00008040003a
:102acc0080004000808120000080400010007800d1
:102adc00004078000043b000eefc07009e80fb0035
:102aec001e4090000080fb00c208dd00008040000a
:102afc0080004000808120000080400010007800a1
:102b0c00e10f50000f003a009e80fb001e40900029
:102b1c000080fb00c208dd00008040008000400007
:102b2c0080812000008040003100200001087800e6
:102b3c00a0c4b300d7fc070010d6280024fc070063
:102b4c006e0037009e80fb001e4090000080fb0052
:102b5c00c208dd0000804000800040008081200021
:102b6c0000804000100078000000e00063003a0094
:102b7c0030c5b300c7fc070070d6280014fc070052
:102b8c005e0037000fc8bf000004e00013003200e5
:102b9c000ac8bf006b4f5000b28020001241780071
:102bac00124798001e4090000081fb009e80fb00a5
:102bbc0066004700821f7800811f7800d1d628005c
:102bcc00811f7800c3f60700e687570066004700b0
:102bdc00fffb07000f68ef004800370010c8bf006c
:102bec000004e000450032000ac8bf00004fe900b5
:102bfc000bc8bf000040e900104798009e80fb0006
:102c0c001e4090000080fb00c208dd0000804000e8
:102c1c00800040008081200000804000100078007f
:102c2c00e20f500015003a0000c2b30099fc0700f7
:102c3c00a1802000914078003e40900080cf500051
:102c4c00030032000ac8bf000040e8000ae8b700e1
:102c5c009e80fb001e4090000080fb00c208dd003f
:102c6c0000804000800040008081200000804000f7
:102c7c008000eb00010878001f0037009e80fb00ed
:102c8c001e4090000080fb00c208dd000080400068
:102c9c0080004000808120000080400010007800ff
:102cac000000e00014003a0010c2b30079fc0700e9
:102cbc00a1802000914078003e40900080cf5000d1
:102ccc00030032000ac8bf000040e8000ae8b70061
:102cdc009e80fb001e4090000080fb00c208dd00bf
:102cec000080400080004000808120000080400077
:102cfc0021002000010878001068ef00000000009f
:102d0c0025ff37000000fa000080eb0060198800f6
:102d1c000080eb00401688000080eb000016880055
:102d2c0037fc07006efb070079fe070010c0b300ec
:102d3c009bfb0700000000000ec8bf000004e00071
:102d4c00fdff32000200370006c8bf0007e8b700dd
:102d5c0007c8bf00e14f5000fbff3a000e68ef00c0
:082d6c00eafe0700ffff37003b
:020000040000fa
:102d740012080000a6000000000000000008000087
:102d84001200000000000000da0800001a00000031
:102d940002000000686a6c00747a4c0000000100b4
:102da40000020000040008000010000000002000e1
:102db4002b2d230030000000b80800002200000082
:102dc4000200000030313200333435003637380029
:102dd400394142004344450046003000313233005b
:102de4003435360037383900616263006465660043
:082df4000000000000000000d7
:020000040000fa
:102dfc00f03fb1000180b10006003500ee03090080
:102e0c0000000000403fb1000180b100fbff3d001d
:102e1c001000b000203fb000020035000080090017
:082e2c00000000000000060098
:020000040000fa
:020000040001f9
:0457f400fffc0000b6
:020000040000fa
:020000040001f9
:0457f8009f8100008d
:020000040000fa
:020000040001f9
:0457fc007f3f0000eb
:00000001FF
