:020000040000fa
:080000000002040000000000f2
:020000040000fa
:0400080024030000cd
:020000040000fa
:04000c0024030000c9
:020000040000fa
:0400100024030000c5
:020000040000fa
:0400140024030000c1
:020000040000fa
:0400180024030000bd
:020000040000fa
:04001c0024030000b9
:020000040000fa
:0400200024030000b5
:020000040000fa
:0400240024030000b1
:020000040000fa
:0400280024030000ad
:020000040000fa
:04002c0024030000a9
:020000040000fa
:0400300024030000a5
:020000040000fa
:0400340024030000a1
:020000040000fa
:04003800240300009d
:020000040000fa
:04003c002403000099
:020000040000fa
:040040002403000095
:020000040000fa
:040044002403000091
:020000040000fa
:04004800240300008d
:020000040000fa
:04004c002403000089
:020000040000fa
:040050002403000085
:020000040000fa
:040054002403000081
:020000040000fa
:04005800240300007d
:020000040000fa
:04005c00c8020000d6
:020000040000fa
:040060002403000075
:020000040000fa
:040064002403000071
:020000040000fa
:04006800240300006d
:020000040000fa
:04006c002403000069
:020000040000fa
:040070002403000065
:020000040000fa
:04007400e2020000a4
:020000040000fa
:04007800240300005d
:020000040000fa
:04007c002403000059
:020000040000fa
:040080002403000055
:020000040000fa
:040084002403000051
:020000040000fa
:04008800240300004d
:020000040000fa
:04008c002403000049
:020000040000fa
:040090002403000045
:020000040000fa
:040094002403000041
:020000040000fa
:04009800240300003d
:020000040000fa
:04009c002403000039
:020000040000fa
:0400a0002403000035
:020000040000fa
:0400a4002403000031
:020000040000fa
:0400a800240300002d
:020000040000fa
:0400ac002403000029
:020000040000fa
:0400b0002403000025
:020000040000fa
:0400b4002403000021
:020000040000fa
:0400b800240300001d
:020000040000fa
:0400bc002403000019
:020000040000fa
:0400c0002403000015
:020000040000fa
:0400c4002403000011
:020000040000fa
:0400c800240300000d
:020000040000fa
:0400cc002403000009
:020000040000fa
:0400d0002403000005
:020000040000fa
:0400d4002403000001
:020000040000fa
:0400d80024030000fd
:020000040000fa
:0400dc0024030000f9
:020000040000fa
:0400e00024030000f5
:020000040000fa
:0400e40024030000f1
:020000040000fa
:0400e80024030000ed
:020000040000fa
:0400ec0024030000e9
:020000040000fa
:0400f00024030000e5
:020000040000fa
:0400f40024030000e1
:020000040000fa
:0400f80024030000dd
:020000040000fa
:0400fc0024030000d9
:020000040000fa
:0401000024030000d4
:020000040000fa
:0401040024030000d0
:020000040000fa
:0401080024030000cc
:020000040000fa
:04010c0024030000c8
:020000040000fa
:0401100024030000c4
:020000040000fa
:0401140024030000c0
:020000040000fa
:0401180024030000bc
:020000040000fa
:04011c0024030000b8
:020000040000fa
:0401200024030000b4
:020000040000fa
:0401240024030000b0
:020000040000fa
:0401280024030000ac
:020000040000fa
:04012c0024030000a8
:020000040000fa
:0401300024030000a4
:020000040000fa
:0401340024030000a0
:020000040000fa
:04013800240300009c
:020000040000fa
:04013c002403000098
:020000040000fa
:040140002403000094
:020000040000fa
:040144002403000090
:020000040000fa
:04014800240300008c
:020000040000fa
:04014c002403000088
:020000040000fa
:040150002403000084
:020000040000fa
:040154002403000080
:020000040000fa
:04015800240300007c
:020000040000fa
:04015c002403000078
:020000040000fa
:040160002403000074
:020000040000fa
:040164002403000070
:020000040000fa
:04016800240300006c
:020000040000fa
:04016c002403000068
:020000040000fa
:040170002403000064
:020000040000fa
:040174002403000060
:020000040000fa
:04017800240300005c
:020000040000fa
:04017c002403000058
:020000040000fa
:040180002403000054
:020000040000fa
:0402080024030000cb
:020000040000fa
:04020c0024030000c7
:020000040000fa
:0402100024030000c3
:020000040000fa
:0402140024030000bf
:020000040000fa
:0402180024030000bb
:020000040000fa
:04021c0024030000b7
:020000040000fa
:0402200024030000b3
:020000040000fa
:0402240024030000af
:020000040000fa
:0402280024030000ab
:020000040000fa
:04022c0024030000a7
:020000040000fa
:0402300024030000a3
:020000040000fa
:04023400240300009f
:020000040000fa
:04023800240300009b
:020000040000fa
:04023c002403000097
:020000040000fa
:040240002403000093
:020000040000fa
:04024400240300008f
:020000040000fa
:04024800240300008b
:020000040000fa
:04024c002403000087
:020000040000fa
:040250002403000083
:020000040000fa
:04025400240300007f
:020000040000fa
:04025800240300007b
:020000040000fa
:04025c002403000077
:020000040000fa
:040260002403000073
:020000040000fa
:04026400240300006f
:020000040000fa
:04026800240300006b
:020000040000fa
:04026c002403000067
:020000040000fa
:040270002403000063
:020000040000fa
:04027400240300005f
:020000040000fa
:04027800240300005b
:020000040000fa
:04027c002403000057
:020000040000fa
:040280002403000053
:020000040000fa
:04028400240300004f
:020000040000fa
:04028800240300004b
:020000040000fa
:04028c002403000047
:020000040000fa
:040290002403000043
:020000040000fa
:04029400240300003f
:020000040000fa
:04029800240300003b
:020000040000fa
:04029c002403000037
:020000040000fa
:0402a0002403000033
:020000040000fa
:0402a400240300002f
:020000040000fa
:0402a800240300002b
:020000040000fa
:0402ac002403000027
:020000040000fa
:0402b0002403000023
:020000040000fa
:0402b400240300001f
:020000040000fa
:0402b800240300001b
:020000040000fa
:0402bc002403000017
:020000040000fa
:0402c0002403000013
:020000040000fa
:0402c400240300000f
:020000040000fa
:0402c800240300000b
:020000040000fa
:0402cc002403000007
:020000040000fa
:0402d0002403000003
:020000040000fa
:0402d40024030000ff
:020000040000fa
:0402d80024030000fb
:020000040000fa
:0402dc0024030000f7
:020000040000fa
:0402e00024030000f3
:020000040000fa
:0402e40024030000ef
:020000040000fa
:0402e80024030000eb
:020000040000fa
:0402ec0024030000e7
:020000040000fa
:0402f00024030000e3
:020000040000fa
:0402f40024030000df
:020000040000fa
:0402f80024030000db
:020000040000fa
:0402fc0024030000d7
:020000040000fa
:0403000024030000d2
:020000040000fa
:0403040024030000ce
:020000040000fa
:0403080024030000ca
:020000040000fa
:04030c0024030000c6
:020000040000fa
:0403100024030000c2
:020000040000fa
:0403140024030000be
:020000040000fa
:0403180024030000ba
:020000040000fa
:04031c0024030000b6
:020000040000fa
:0403200024030000b2
:020000040000fa
:0403240024030000ae
:020000040000fa
:0403280024030000aa
:020000040000fa
:04032c0024030000a6
:020000040000fa
:0403300024030000a2
:020000040000fa
:04033400240300009e
:020000040000fa
:04033800240300009a
:020000040000fa
:04033c002403000096
:020000040000fa
:040340002403000092
:020000040000fa
:04034400240300008e
:020000040000fa
:04034800240300008a
:020000040000fa
:04034c002403000086
:020000040000fa
:040350002403000082
:020000040000fa
:04035400240300007e
:020000040000fa
:04035800240300007a
:020000040000fa
:04035c002403000076
:020000040000fa
:040360002403000072
:020000040000fa
:04036400240300006e
:020000040000fa
:04036800240300006a
:020000040000fa
:04036c002403000066
:020000040000fa
:040370002403000062
:020000040000fa
:04037400240300005e
:020000040000fa
:04037800240300005a
:020000040000fa
:04037c002403000056
:020000040000fa
:040380002403000052
:020000040000fa
:100400004f8f20000e7f22000e01880000000000a8
:10041000000020000000e000020032000001200087
:100420002002880014000700890007000000e00097
:1004300003003a00e005210001002000020037001f
:100440000000200001002000810f70000100320038
:1004500014000700000020000000e000020032004d
:100460000000020000000000d40a020000000000aa
:100470000040da000000fe004440a900000820000f
:100480000000e0000300320000002000a00188000e
:100490004440a800000006008a1f78008b1f7800e7
:1004a0000000060091018800800478000000eb0045
:1004b0001a003700e284440032a0b4009905ba0063
:1004c000e284440032a0b4009906ba00e2844400f9
:1004d00032a0b4000006eb00476fde00fd07b2005b
:1004e000636ce10003003a00ebff07000000eb0043
:1004f0000a003700606ce10004003a00005deb0088
:100500008b05e900fdff3e00040037006168e10053
:10051000010032000086eb000b00070019c7ba008b
:100520001905ba000e04e00003003a000a00e000da
:10053000e0ff3a0000000600fe07b2009e018800be
:100540008a047800f5ff3700395dba008b05e900b1
:100550000c003200295dba008b05e900080032006a
:100560000c00e00003003a00e284440032a0b40032
:10057000f5ff370019ddba008b05e900faff3a00f4
:100580008904e800e184440032a0b40000000600c1
:10059000809fbe000000fa0095a0a90085a0a900d8
:1005a000001880008000eb00204088003140880067
:1005b00095a0a80085a0a9000080fa004f00be0009
:1005c000004006003600f800809fbe00829fbe00fb
:1005d000849fbe00869fbe003400f800000020000b
:1005e000a00188000000fa00101680006100600081
:1005f0000000e0000a00320000a821006100200095
:10060000d906070010168000610060000000e000bd
:100610000400320010002000004088000100370074
:100620000028ef008660a9000080fa003400f9007d
:100630004f03be004f02be004f01be004f00be0080
:100640003600f900004006000040da000000fe001d
:1006500000000500839f68000100e00002003d00eb
:1006600060001000e08018000300e00002003d0080
:1006700060011100e0811900050007004f00e00053
:1006800002003b0060001000e0801800000006003f
:100690006022b800060220000000d0008180d20055
:1006a0000482d2008582d2000000a0000202520023
:1006b00083825a00030031000202420083824a0012
:1006c0000000a1000603e900f3ff3a000000060065
:1006d0008001780002003700b15978000201e9007a
:1006e0000200e000fcff3a000000060080017800f4
:1006f00002003700815978000201e9000200e000a1
:10070000fcff3a0000000600889fbe00d040800039
:100710000000e0000100320000000100e040800025
:100720000000e00001003200000001008081200094
:100730001004e00022003a0060478000714780000a
:1007400088002000d26026009301200016010700d7
:10075000f2352f00e3c623000000410081804900ec
:100760000804e900f7ff3a00e881200009082000aa
:1007700088844400d2602600930120000a0107000b
:10078000f2352f00e3c623000000410081804900bc
:1007900000acbe00890f5400f6ff3a0060478800a5
:1007a00071478800f044800001458000f0408800d7
:1007b0000141880011c0b300808120000148780009
:1007c000d2602600930120006047800071478000be
:1007d000f5000700f2352f00e3c6230000024100b8
:1007e000818249006447880075478800e0812000c5
:1007f000100078007f0160004211dd00208220009f
:10080000020140001200be00f04088000141880053
:100810000489be000100780000f0a1004f04be0072
:1008200000000600889fbe0000047800d0408000d1
:100830000000e00001003200000001008081200083
:100840000048eb00e04080000000e00001003200c2
:10085000000001008004eb006847880079478800a9
:100860004f04be00000006008000780001017800ff
:100870003104e000fdff3a000000510000000600d6
:100880008001780002003700845978000201e900f5
:100890000200e00006003200314278000404e0006b
:1008a000f9ff3a00020037008059eb000201e9002d
:1008b0000200e000fcff3a0000000600ee8747005f
:1008c000889fbe008a9fbe008c9fbe008e1f78004e
:1008d000f0b79f00010678008205780000047800d8
:1008e000080578000a047800b84678000d00fb007f
:1008f0008e0007000000e000f9ff3a00d0c2b3000c
:1009000080cf56000300320000c0e90080cf5600bf
:1009100002003a000a05e80001003700804678002e
:100920000b00e00005003500e18f550003003200a8
:1009300040022000808f5500060034006044b8005b
:100940000c00e000720032007fb09700000e7800cb
:10095000480037000b00e0000e003200f08f550019
:100960001a003a0000c3b3009a4f100017003a0073
:100970001a40900081c7b300814f5000030032003d
:1009800081c5b300814f500010003a000a85e8008d
:100990000e003700ab00200000c3b3009a4f1000d8
:1009a0000a003a001a40900081c7b300814f5000fe
:1009b000040032008b00200081c5b300814f50003d
:1009c00002003a000a85e8000b0120000a007800c6
:1009d000000278000400780001c3b300b0cf10001b
:1009e000fbff3200040778006044b800b4b79f00f2
:1009f0000d003700218a200081405000c1ef9f0088
:100a00006159b9000800be00670007004fea97006f
:100a10000401fb00cf91de00c8b79f00d9b79f004b
:100a200002044000838448008e0278003e00fb00f0
:100a300085bf9f00450007000b017800800078000b
:100a4000208a20004e0007008fba97000000e000c7
:100a5000e8ff3a003fb29700850f550007003a00c3
:100a60006044b8000c00e00029003200ffb297009b
:100a7000050e78006044b80025003700048252005b
:100a8000708c200060c07d000000fb00000252005e
:100a90001700330011003a004fe997000200fb00f5
:100aa000cf80de000000540081805c00800f540085
:100ab000818f5c00090039006159b90085bf9f0032
:100ac000f3fe07008fba97004fb19700dfb1970090
:100ad000820f5000838f5800050032002002200052
:100ae000804788000084eb008084eb00050037001d
:100af000d0c2b30080cf560002003a006004140058
:100b0000e0841c000c00e00001003200050e7800bb
:100b10000800be004f0778004f06be004f05be001c
:100b20004f04be00ef00b100000006006900e100c4
:100b3000040035006d00e100030034000002b10044
:100b40000100320000000500100005008000780060
:100b50001104b100030035009101b10001003c0017
:100b60000050a00000000600904780000000e00058
:100b70000100320000000100008f2000000006008c
:100b800003003700b0cf1000050032000201e90079
:100b9000800178000200e000faff3a000000050042
:100ba0000300780000000600020ab900001bb9002b
:100bb0000200b800810042008100430000000600ee
:020000040000fa
:100bc000513a0000200000002020000020200000fa
:100bd00020200000004100003a20000000450000f5
:100be000415300005900000041560000452000001c
:100bf000004800004152000044000000476100002e
:100c00006d650000204d00006f640000652000004d
:100c1000004400006966000066690000637500001a
:100c20006c740000793a0000200000004741000089
:100c30004d450000204d00004f44000045000000dd
:100c4000534500004c4500004354000000310000b3
:100c50002d4b000065790000204900006e700000f7
:100c600075740000204d00006f64000065000000f6
:100c7000322d00004d7500006c74000069200000ea
:100c8000436800006f6900006365000000570000c2
:100c9000454c0000434f00004d450000205400002b
:100ca0004f0000004a490000454700004f27000060
:100cb00053200000474100004d45000000000000a7
:020000040000fa
:100cc0000400fa00000f7800110798001e00780059
:100cd00000407800614060000080fb00610060001f
:100ce0004400dd00611680000140a1000100700099
:100cf00060168800007d2000010020001a05070012
:100d0000cca2a800007d20000100200016050700ed
:100d1000611680001e0090000100700060168800bf
:100d2000007d2000010020000f050700cca2a900d3
:100d3000007d2000010020000b050700cc22ef0001
:100d40000080fa00000006000600fa00000f78009c
:100d500011079800220798009e0090001e0078005e
:100d6000d7ff0700ae0090001e007800d4ff0700f8
:100d70000080fa00000006000000fa00e2002000f7
:100d80008000eb000000eb00efff07000080fa009e
:100d9000000006000000fa00c20020008000eb0006
:100da0000000eb00e8ff07000080fa0000000600ea
:100db0000000fa00220020008000eb000000eb00a1
:100dc000e1ff07000080fa00000006000000fa00c2
:100dd0000001eb00c10020000000eb00daff07007b
:100de0000080fa00000006000600fa004047980064
:100df000ce40900070c2b30080cf500005003a0092
:100e000020002000000f78007000200010079800dc
:100e100077003700ce409000e0c2b30080cf500092
:100e200005003a0020002000000f7800e0002000bc
:100e3000100798006e003700ce409000b0c2b3009b
:100e400080cf500005003a0020002000000f7800fd
:100e5000b00020001007980065003700ce409000d9
:100e6000a0c2b30080cf500005003a00200020004f
:100e7000000f7800a0002000100798005c003700e9
:100e8000ce409000d0c2b30080cf500005003a00a1
:100e900020002000000f7800d000200010079800ec
:100ea00053003700ce40900000c2b30080cf500006
:100eb00005003a00a0002000000f78000000eb00c1
:100ec000100798004a003700ce409000f0c2b300ef
:100ed00080cf50000b003400ce409000f0c3b30030
:100ee00080cf500007003c0030002000000f780049
:100ef0004e4090000000fb000003b1001007980076
:100f00003b003700ce409000f0c3b30080cf5000cc
:100f10000b003400ce409000f0c4b30080cf5000ee
:100f200007003c0040002000000f78004e40900079
:100f30000000fb000004b100100798002c003700ef
:100f4000ce409000f0c4b30080cf50000b003400be
:100f5000ce409000f0c5b30080cf500007003c00a9
:100f600050002000000f78004e4090000000fb0071
:100f70000005b100100798001d003700ce4090001a
:100f8000f0c5b30080cf50000b003400ce4090007d
:100f9000f0c6b30080cf500007003c006000200086
:100fa000000f78004e4090000000fb000006b100ea
:100fb000100798000e003700ce409000f0c6b30036
:100fc00080cf50000a003400ce409000d0c7b3005c
:100fd00080cf500006003c0070002000000f780019
:100fe0004e4090000000fb000007b1001007980081
:100ff0001e0190009e0078001000200052ff0700a4
:101000000080fa00000006000800fa00200798009f
:10101000310798003e009000e10f500003003200bd
:10102000e20f5000070032000b0037002e00900046
:101030000dfe0700700010000000d100100798009e
:10104000050037002e00900007fe0700700010001a
:1010500010079800000000000000eb00000f78006f
:101060000300370000c2b3005fff07001e0fe80057
:101070001e0090009e007800808f5000f9ff350020
:101080000000eb00000f7800060037001e0078001b
:10109000ae009000008040001040780052ff070032
:1010a0001e0fe8001e007800ae0090000080400097
:1010b000104078000004e000f4ff3a000080fa00dd
:1010c000000006000000fa00120020008000eb0083
:1010d0000000eb001cff07000080fa000000060083
:1010e0000000fa0000fc2f004016880000a62e0029
:1010f000010020001c040700310020000000eb006c
:10110000effe070000e224000100200016040700a3
:10111000310020000000eb00e9fe0700001920006c
:101120000100200010040700310020000000eb0047
:10113000e3fe0700210020000000eb00e0fe0700b6
:1011400082002000210020000000eb00fefe0700ce
:10115000820020008000eb000000eb00fafe070098
:10116000d8ff0700620020008000eb000000eb00c9
:10117000f5fe0700c20020008000eb000000eb003d
:10118000f1fe07000080fa00000006000000fa00ef
:101190004003800000d0a00040038800510380007d
:1011a000100e200001007000500388000080fa003b
:1011b000000006000000fa00c442a900c462a800b2
:1011c000201680004300de00614060000080fb00cc
:1011d0006100600000004000211680000110a100a5
:1011e00001007000201688005116800000082000c1
:1011f000008060000000e0000b003a0000a8210021
:1012000061002000d8030700000000005116800094
:1012100000082000008060000000e000fbff3200ba
:1012200020c3b300de0037005116800000102000fc
:10123000008060000000e0000b003a0000a82100e0
:1012400061002000c8030700000000005116800064
:1012500000102000008060000000e000fbff320072
:1012600050c3b300ce00370051168000002020008c
:10127000008060000000e0000b003a0000a82100a0
:1012800061002000b8030700000000005116800034
:1012900000202000008060000000e000fbff320022
:1012a00080c3b300be00370051168000000022004a
:1012b000008060000000e0000b003a0000a8210060
:1012c00061002000a8030700000000005116800004
:1012d00000002200008060000000e000fbff320000
:1012e00000c3b300ae003700c462a900c442a80026
:1012f000201680004200de00614060000080fb009c
:101300006100600000004000211680000110a10073
:10131000010070002016880051168000000820008f
:10132000008060000000e0000b003a0000a82100ef
:10133000610020008c0307000000000051168000af
:1013400000082000008060000000e000fbff320089
:1013500030c3b30092003700511680000010200007
:10136000008060000000e0000b003a0000a82100af
:10137000610020007c03070000000000511680007f
:1013800000102000008060000000e000fbff320041
:1013900060c3b30082003700511680000020200097
:1013a000008060000000e0000b003a0000a821006f
:1013b000610020006c03070000000000511680004f
:1013c00000202000008060000000e000fbff3200f1
:1013d00090c3b30072003700511680000000220055
:1013e000008060000000e0000b003a0000a821002f
:1013f000610020005c03070000000000511680001f
:1014000000002200008060000000e000fbff3200ce
:10141000d0c2b30062003700c422a900c462a80091
:10142000201680004300de00614060000080fb0069
:10143000610060004200dd00211680000120a10053
:10144000010070002016880051168000000820005e
:10145000008060000000e0000b003a0000a82100be
:1014600061002000400307000000000051168000ca
:1014700000082000008060000000e000fbff320058
:1014800010c3b30046003700511680000010200042
:10149000008060000000e0000b003a0000a821007e
:1014a000610020003003070000000000511680009a
:1014b00000102000008060000000e000fbff320010
:1014c00040c3b300360037005116800000202000d2
:1014d000008060000000e0000b003a0000a821003e
:1014e000610020002003070000000000511680006a
:1014f00000202000008060000000e000fbff3200c0
:1015000070c3b3002600370051168000000022008f
:10151000008060000000e0000b003a0000a82100fd
:101520006100200010030700000000005116800039
:1015300000002200008060000000e000fbff32009d
:1015400050c1b30016003700c462a8002016800006
:101550004300de00614060000080fb00610060002d
:101560004200dd00211680000120a1000100700072
:1015700020168800201680004200de0061406000d6
:101580000080fb0061006000000040002116800028
:101590000110a100010070002016880000c0eb00bf
:1015a0000080fa00000006000000fa0010ff2f0083
:1015b0000016880000fc2f0040168800cc22ef00a7
:1015c00086020700c6fe0700f0fe07000003800049
:1015d0000020a000000388009660a8008660a90093
:1015e0000e28ef00700207003e0207000b02070002
:1015f00040408000e10f500002003a001101070056
:101600000100370056000700ffff37000200fa0014
:10161000000f78001e007800e10f50000600320035
:10162000e20f5000060032000000e00006003a0021
:10163000b0c2b30005003700d0c2b30003003700ca
:10164000a0c2b30001003700b0c2b3000080fa00ae
:10165000000006000000fa002040800031408000b9
:10166000000078006ffc070027fc0700a1002000a5
:1016700001017800110009000200d8008000fd007f
:101680008040880020fc0700a100200001017800b4
:10169000110009000200d8008000fd009040880081
:1016a00019fc0700514080008100e800010178002a
:1016b000110009000200d8008000fd00a040880051
:1016c000a0408000e10f500009003200e20f5000fe
:1016d0000c0032000000e00010003a008140800061
:1016e0009040800000804000b04088000b00370030
:1016f000814080009040800000805000b040880011
:101700000600370081408000904080000088b900ca
:1017100000007800b0408800000000008040800099
:10172000004078000043b000affd070000c2b300e6
:10173000adfd0700a0408000b4ff0700aafd070030
:1017400000c2b300a8fd0700904080000040780070
:101750000043b000a4fd07000080fa00000006006e
:101760001c00fa000000eb00000f78000000eb0006
:10177000100798000000eb00200798000000eb0025
:10178000300798000000eb00400798004dfe07006e
:1017900087fd07008000eb00005e28001afe0700ae
:1017a000acff07002040800031408000000078003e
:1017b0001cfc0700d4fb0700310020000101780069
:1017c000110009000200d8008000fd0040079800c9
:1017d0004e009000e10f500007003200e20f500071
:1017e000080032000000e00040003a00b1408000f4
:1017f000010f780006003700b24080001207980001
:1018000003003700b140800021079800000000006d
:101810003600370020408000314080000000780012
:1018200000fc0700b8fb0700310020000101780030
:10183000110009000200d8008000fd004007980058
:10184000204080003140800000007800f5fb070058
:10185000adfb0700a1002000010178001100090084
:101860000200d8008000fd00300798003e00900084
:101870009e0f500018003200be0090001e00900025
:10188000808f500016003200be0090002e009000a5
:10189000808f5000140032004e009000e10f500085
:1018a00007003200e20f5000080032000000e000a4
:1018b0000e003a00be009000010f78000b003700c8
:1018c0003e0190001207980008003700be0090000b
:1018d00021079800050037000000000003003700d2
:1018e0000000000001003700000000001e0078002a
:1018f0000000e000c7ff32001e0090000000e00082
:10190000c4ff32002e0090000000e000c1ff320052
:101910006a004700120120008000eb0073fb070003
:101920002afd07001e017800706626000090b900ad
:10193000c288de004f90de0000805000004078003a
:101940000043b00028fd07009e0078007066260066
:101950000089b9004299de004f88de000000510086
:101960006a01b90002007800008050000040780051
:101970000043b0001cfd070000c2b3001afd0700c1
:101980001e019000706626000090b900c288de003b
:101990004f90de0000805000004078000043b0000f
:1019a00011fd07009e009000706626000089b900b6
:1019b0004299de004f88de00000051006a01b90044
:1019c0000200780000805000004078000043b00022
:1019d00005fd070000c2b30003fd07002e019000c3
:1019e000706626000090b900c288de004f90de00cd
:1019f00000805000004078000043b000fafc07006f
:101a0000ae009000706626000089b9004299de00a1
:101a10004f88de00000051006a01b9000200780022
:101a200000805000004078000043b000eefc07004a
:101a300000000000004080000000e000fdff3200d8
:101a400052ff37001000fa0010a42300010220000a
:101a50004007980051079800ec004700000009007b
:101a60008018eb008058eb0096fd0700d0fc0700c3
:101a70008000eb00005e280063fd0700f5fe070014
:101a8000d2fc0700bcfc07008000eb00405e280091
:101a90005dfd0700cdfc07006800470072002000d4
:101aa0008000eb0011fb07006800470042002000a7
:101ab000b15e280006fb0700680047008000eb00cd
:101ac00051fd07000080eb00200798000000eb00ac
:101ad0001007980030003700b6fd07000000fb003b
:101ae000200798002e009000f50f500014003a00d7
:101af0001e0090000000e00011003400b3fc07005d
:101b00008000eb00405e28003ffd07001e009000b3
:101b10000080e800000047008040eb00014898008a
:101b20001e0090000000e90010079800a7fc0700c5
:101b3000680047008000eb0033fd07001600370007
:101b40002e009000f50f5000130032002e00900080
:101b5000e10f4000100032001e009000e20f500024
:101b60000d003c001e00900063004000ae0090009d
:101b70008140780000004700014898001e00900056
:101b80000000e8001007980090fc0700680047007c
:101b90008000eb001cfd0700004080000000e0001a
:101ba000cdff3200be489000d0c2b30080cf5000bd
:101bb00008003a0068004700e40040006800470061
:101bc000320020002efb070010002000000f7800dc
:101bd0000700370068004700e30040006800470046
:101be0004200200026fb07000000eb00000f7800f9
:101bf00068004700a20020008000eb002ffb0700d8
:101c0000300798001e0078000000e0000b00320052
:101c10003e0090008000ea00b0408000808f5000bd
:101c200006003a00504080008000e80070408000cc
:101c300000804000704088000c0037001e007800d3
:101c40000000e00009003a00b0408000be009000b3
:101c5000808f500005003a00504080008000e8006e
:101c600070408000008040007040880015fd070033
:101c70004ffc07003e019000706626000090b900fe
:101c8000c288de004f90de000080500000407800e7
:101c90000043b00054fc0700be00900070662600b0
:101ca0000089b9004299de004f88de000000510033
:101cb0006a01b900020078000080500000407800fe
:101cc0000043b00048fc070000c2b30046fc070018
:101cd000b04080000001780002f0a7000201ea0095
:101ce000706626000090b900c288de004f90de00ca
:101cf00000805000004078000043b0003afc07002c
:101d0000b04080008000780001f0a7008100ea0068
:101d1000706626000089b9004299de004f88de0017
:101d2000000051006a01b9000200780000805000f4
:101d3000004078000043b0002bfc070000c2b30055
:101d400029fc070072408000706626000090b900f0
:101d5000c288de004f90de00008050000040780016
:101d60000043b00020fc0700714080007066260030
:101d70000089b9004299de004f88de000000510062
:101d80006a01b9000200780000805000004078002d
:101d90000043b00014fc070000482800e1012000c7
:101da000f100070000000000004080000000e0009b
:101db000fdff32002cff37000000fa005040800089
:101dc000e50f500012003e00110020000008dd0069
:101dd00001032000810060000100e0000a003a00d9
:101de000ec0060000100e00005003a0063006000c4
:101df0000000e00006003200f05e28000500370019
:101e0000405f280003003700905f28000100370082
:101e1000f05e28000080fa00000006000000fa00d2
:101e2000a8fc0700e2fb07008000eb00e05f280051
:101e300075fc070040408000004078000043b0007f
:101e4000e9fb07000a28ef000080eb0060408800f3
:101e5000204080003140800052002000030020001c
:101e6000829fbe006033b800f43f200005002000d0
:101e70006011b80069000700e4875700000078008f
:101e8000504088005140800060408000808f5000aa
:101e900009003200cdfb07008000eb0090602800b5
:101ea00059fc0700c4ff07008000eb0056fc070048
:101eb0005040800060408800101680006100600083
:101ec0000000e000e2ff320060408000cf00de0052
:101ed000008040000080d100504088000080fa005f
:101ee000000006000200fa0076fc0700b0fb0700c5
:101ef000110020006061280043fc0700b3fb0700cd
:101f000011002000006228003ffc07000090200024
:101f1000d1032000940007006afc0700a4fb07001f
:101f20008000eb007062280037fc0700a7fb070069
:101f30008000eb008063280033fc07000080eb008a
:101f4000000f7800010037000000000099fc070036
:101f50000000fb00000f7800100320009e007800b6
:101f6000808f500004003200200320009e00780083
:101f7000808f5000f4ff3a0001fd2f001e804000ca
:101f8000404088000080fa00000006000000fa00cf
:101f900000000000004080000000e000fdff320073
:101fa0000080fa00000006000000fa0045fc07006f
:101fb0007ffb0700110020007064280012fc07005e
:101fc00082fb070011002000206528000efc07009e
:101fd000eeff07000080fa00000006000000fa0093
:101fe000f0df2f0060198800700e220000198800b1
:101ff0002223ef00f0ff210020198800900020002c
:10200000401988003023ef0095a0a80085a0a90002
:1020100021e3a8000080fa00000006001000fa008a
:10202000008fbe00220798003307980044079800ed
:102030005507980066079800770798002e009000d3
:10204000be0090003e011000ae8118003eba97001d
:10205000ceba97006e009000fe0090000000520083
:1020600081805a00009ab90004027800028bb900fe
:1020700086027800050242000010b800010242000a
:10208000840078004e029000de0290002e01900045
:10209000be0190000201520083815a006df90700d1
:1020a0000001be006e009000fe00900002004000a3
:0c20b000838048000080fa000000060059
:020000040000fa
:1020bc00000800001800000000000000ec08000000
:1020cc0004000000020000000100000000000000fd
:1020dc00180800008a00000000000000a2080000a0
:1020ec004a00000002000000303132003334350069
:1020fc0036373800396162006364650066676800d2
:10210c00696a6b006c6d6e006f7071007273740095
:10211c007576770078797a0000000000211511009f
:10212c000e0d0c000b0b0a000a0909000909090025
:10213c000808080008080800080707000707070038
:10214c00070707000707070007070000f008000053
:0c215c0004000000000000000000000073
:020000040000fa
:10216800f03fb1000180b10006003500ee03090020
:1021780000000000403fb1000180b100fbff3d00be
:102188001000b000203fb0000200350000800900b8
:08219800000000000000060039
:020000040000fa
:020000040001f9
:0457f400fffc0000b6
:020000040000fa
:020000040001f9
:0457f8009f8100008d
:020000040000fa
:020000040001f9
:0457fc007f3f0000eb
:00000001FF
