:020000040000fa
:080000000002040000000000f2
:020000040000fa
:04000800e202000010
:020000040000fa
:04000c00e20200000c
:020000040000fa
:04001000e202000008
:020000040000fa
:04001400e202000004
:020000040000fa
:04001800e202000000
:020000040000fa
:04001c00e2020000fc
:020000040000fa
:04002000e2020000f8
:020000040000fa
:04002400e2020000f4
:020000040000fa
:04002800e2020000f0
:020000040000fa
:04002c00e2020000ec
:020000040000fa
:04003000e2020000e8
:020000040000fa
:04003400e2020000e4
:020000040000fa
:04003800e2020000e0
:020000040000fa
:04003c00e2020000dc
:020000040000fa
:04004000e2020000d8
:020000040000fa
:04004400e2020000d4
:020000040000fa
:04004800e2020000d0
:020000040000fa
:04004c00e2020000cc
:020000040000fa
:04005000e2020000c8
:020000040000fa
:04005400e2020000c4
:020000040000fa
:04005800e2020000c0
:020000040000fa
:04005c00c8020000d6
:020000040000fa
:04006000e2020000b8
:020000040000fa
:04006400e2020000b4
:020000040000fa
:04006800e2020000b0
:020000040000fa
:04006c00e2020000ac
:020000040000fa
:04007000e2020000a8
:020000040000fa
:04007400e2020000a4
:020000040000fa
:04007800e2020000a0
:020000040000fa
:04007c00e20200009c
:020000040000fa
:04008000e202000098
:020000040000fa
:04008400e202000094
:020000040000fa
:04008800e202000090
:020000040000fa
:04008c00e20200008c
:020000040000fa
:04009000e202000088
:020000040000fa
:04009400e202000084
:020000040000fa
:04009800e202000080
:020000040000fa
:04009c00e20200007c
:020000040000fa
:0400a000e202000078
:020000040000fa
:0400a400e202000074
:020000040000fa
:0400a800e202000070
:020000040000fa
:0400ac00e20200006c
:020000040000fa
:0400b000e202000068
:020000040000fa
:0400b400e202000064
:020000040000fa
:0400b800e202000060
:020000040000fa
:0400bc00e20200005c
:020000040000fa
:0400c000e202000058
:020000040000fa
:0400c400e202000054
:020000040000fa
:0400c800e202000050
:020000040000fa
:0400cc00e20200004c
:020000040000fa
:0400d000e202000048
:020000040000fa
:0400d400e202000044
:020000040000fa
:0400d800e202000040
:020000040000fa
:0400dc00e20200003c
:020000040000fa
:0400e000e202000038
:020000040000fa
:0400e400e202000034
:020000040000fa
:0400e800e202000030
:020000040000fa
:0400ec00e20200002c
:020000040000fa
:0400f000e202000028
:020000040000fa
:0400f400e202000024
:020000040000fa
:0400f800e202000020
:020000040000fa
:0400fc00e20200001c
:020000040000fa
:04010000e202000017
:020000040000fa
:04010400e202000013
:020000040000fa
:04010800e20200000f
:020000040000fa
:04010c00e20200000b
:020000040000fa
:04011000e202000007
:020000040000fa
:04011400e202000003
:020000040000fa
:04011800e2020000ff
:020000040000fa
:04011c00e2020000fb
:020000040000fa
:04012000e2020000f7
:020000040000fa
:04012400e2020000f3
:020000040000fa
:04012800e2020000ef
:020000040000fa
:04012c00e2020000eb
:020000040000fa
:04013000e2020000e7
:020000040000fa
:04013400e2020000e3
:020000040000fa
:04013800e2020000df
:020000040000fa
:04013c00e2020000db
:020000040000fa
:04014000e2020000d7
:020000040000fa
:04014400e2020000d3
:020000040000fa
:04014800e2020000cf
:020000040000fa
:04014c00e2020000cb
:020000040000fa
:04015000e2020000c7
:020000040000fa
:04015400e2020000c3
:020000040000fa
:04015800e2020000bf
:020000040000fa
:04015c00e2020000bb
:020000040000fa
:04016000e2020000b7
:020000040000fa
:04016400e2020000b3
:020000040000fa
:04016800e2020000af
:020000040000fa
:04016c00e2020000ab
:020000040000fa
:04017000e2020000a7
:020000040000fa
:04017400e2020000a3
:020000040000fa
:04017800e20200009f
:020000040000fa
:04017c00e20200009b
:020000040000fa
:04018000e202000097
:020000040000fa
:04020800e20200000e
:020000040000fa
:04020c00e20200000a
:020000040000fa
:04021000e202000006
:020000040000fa
:04021400e202000002
:020000040000fa
:04021800e2020000fe
:020000040000fa
:04021c00e2020000fa
:020000040000fa
:04022000e2020000f6
:020000040000fa
:04022400e2020000f2
:020000040000fa
:04022800e2020000ee
:020000040000fa
:04022c00e2020000ea
:020000040000fa
:04023000e2020000e6
:020000040000fa
:04023400e2020000e2
:020000040000fa
:04023800e2020000de
:020000040000fa
:04023c00e2020000da
:020000040000fa
:04024000e2020000d6
:020000040000fa
:04024400e2020000d2
:020000040000fa
:04024800e2020000ce
:020000040000fa
:04024c00e2020000ca
:020000040000fa
:04025000e2020000c6
:020000040000fa
:04025400e2020000c2
:020000040000fa
:04025800e2020000be
:020000040000fa
:04025c00e2020000ba
:020000040000fa
:04026000e2020000b6
:020000040000fa
:04026400e2020000b2
:020000040000fa
:04026800e2020000ae
:020000040000fa
:04026c00e2020000aa
:020000040000fa
:04027000e2020000a6
:020000040000fa
:04027400e2020000a2
:020000040000fa
:04027800e20200009e
:020000040000fa
:04027c00e20200009a
:020000040000fa
:04028000e202000096
:020000040000fa
:04028400e202000092
:020000040000fa
:04028800e20200008e
:020000040000fa
:04028c00e20200008a
:020000040000fa
:04029000e202000086
:020000040000fa
:04029400e202000082
:020000040000fa
:04029800e20200007e
:020000040000fa
:04029c00e20200007a
:020000040000fa
:0402a000e202000076
:020000040000fa
:0402a400e202000072
:020000040000fa
:0402a800e20200006e
:020000040000fa
:0402ac00e20200006a
:020000040000fa
:0402b000e202000066
:020000040000fa
:0402b400e202000062
:020000040000fa
:0402b800e20200005e
:020000040000fa
:0402bc00e20200005a
:020000040000fa
:0402c000e202000056
:020000040000fa
:0402c400e202000052
:020000040000fa
:0402c800e20200004e
:020000040000fa
:0402cc00e20200004a
:020000040000fa
:0402d000e202000046
:020000040000fa
:0402d400e202000042
:020000040000fa
:0402d800e20200003e
:020000040000fa
:0402dc00e20200003a
:020000040000fa
:0402e000e202000036
:020000040000fa
:0402e400e202000032
:020000040000fa
:0402e800e20200002e
:020000040000fa
:0402ec00e20200002a
:020000040000fa
:0402f000e202000026
:020000040000fa
:0402f400e202000022
:020000040000fa
:0402f800e20200001e
:020000040000fa
:0402fc00e20200001a
:020000040000fa
:04030000e202000015
:020000040000fa
:04030400e202000011
:020000040000fa
:04030800e20200000d
:020000040000fa
:04030c00e202000009
:020000040000fa
:04031000e202000005
:020000040000fa
:04031400e202000001
:020000040000fa
:04031800e2020000fd
:020000040000fa
:04031c00e2020000f9
:020000040000fa
:04032000e2020000f5
:020000040000fa
:04032400e2020000f1
:020000040000fa
:04032800e2020000ed
:020000040000fa
:04032c00e2020000e9
:020000040000fa
:04033000e2020000e5
:020000040000fa
:04033400e2020000e1
:020000040000fa
:04033800e2020000dd
:020000040000fa
:04033c00e2020000d9
:020000040000fa
:04034000e2020000d5
:020000040000fa
:04034400e2020000d1
:020000040000fa
:04034800e2020000cd
:020000040000fa
:04034c00e2020000c9
:020000040000fa
:04035000e2020000c5
:020000040000fa
:04035400e2020000c1
:020000040000fa
:04035800e2020000bd
:020000040000fa
:04035c00e2020000b9
:020000040000fa
:04036000e2020000b5
:020000040000fa
:04036400e2020000b1
:020000040000fa
:04036800e2020000ad
:020000040000fa
:04036c00e2020000a9
:020000040000fa
:04037000e2020000a5
:020000040000fa
:04037400e2020000a1
:020000040000fa
:04037800e20200009d
:020000040000fa
:04037c00e202000099
:020000040000fa
:04038000e202000095
:020000040000fa
:100400008f8020000e7f22000e0188000000000077
:10041000000020000000e000020032000001200087
:100420002002880014000700680007000000e000b8
:1004300003003a00206e2000010020000200370077
:100440000000200001002000810f70000100320038
:1004500014000700000020000000e000020032004d
:100460000000020000000000c005020000000000c3
:100470000040da000000fe004440a9000000200017
:100480000000e0000300320000002000a00188000e
:100490004440a800000006008a1f78008b1f7800e7
:1004a0000000060091018800800478000000eb0045
:1004b0001a003700e284440032a0b4009905ba0063
:1004c000e284440032a0b4009906ba00e2844400f9
:1004d00032a0b4000006eb00476fde00fd07b2005b
:1004e000636ce10003003a00ebff07000000eb0043
:1004f0000a003700606ce10004003a00005deb0088
:100500008b05e900fdff3e00040037006168e10053
:10051000010032000086eb000b00070019c7ba008b
:100520001905ba000e04e00003003a000a00e000da
:10053000e0ff3a0000000600fe07b2009e018800be
:100540008a047800f5ff3700395dba008b05e900b1
:100550000c003200295dba008b05e900080032006a
:100560000c00e00003003a00e284440032a0b40032
:10057000f5ff370019ddba008b05e900faff3a00f4
:100580008904e800e184440032a0b40000000600c1
:10059000809fbe000000fa0095a0a90085a0a900d8
:1005a000001880008000eb000040880011408800a7
:1005b00095a0a80085a0a9000080fa004f00be0009
:1005c000004006000040da000000fe0000000500c8
:1005d000839f68000100e00002003d006000100001
:1005e000e08018000300e00002003d0060011100ff
:1005f000e0811900050007004f00e00002003b0009
:1006000060001000e0801800000006006022b800c2
:10061000060220000000d0008180d2000482d200b7
:100620008582d2000000a0000202520083825a009c
:10063000030031000202420083824a000000a10050
:100640000603e900f3ff3a0000000600889fbe00a1
:100650008a9fbe0030044200b0844a0030054b003f
:1006600090854b006000b1000898be000a90be0063
:100670000440e10005c8e10006d0e10007d8e10030
:1006800002003100680040001008e8004f05be007d
:100690004f04be0000000600889fbe008a9fbe0077
:1006a0003004be002005be000418540005985c000c
:1006b00006185d0007985d00110020000440e1006d
:1006c00005c8e10006d0e10007d8e10001003900cb
:1006d0008000eb00108810004f05be004f04be00e4
:1006e000000006001200fa00889fbe008a9fbe002c
:1006f0008c9fbe00e0b79f00f1b79f0082bf9f00b4
:1007000093bf9f000605be000404be000000eb007e
:10071000d0b79f00c0b79f00b0b79f00a0b79f00a1
:1007200090b79f000006eb005fb19700cfb0970035
:10073000820141003fb097000200e00004003d004c
:10074000370007007e805700c0ff07000300370016
:10075000330007007e805700cfff0700dfb6970009
:100760000d00e0000c0035006fb29700ffb297005b
:100770000fbb97009fbb97001000200001002000d6
:100780006011b800000272008182720002037300df
:10079000838373001b0007000c06e800010420009f
:1007a000810f5600e0ff3a000d00e00004003d001c
:1007b0000802be000a03be007e805700a3ff0700a8
:1007c0005fa897000000e00005003a001fb2970004
:1007d000afb297003fb39700cfb39700090007006f
:1007e0006fb09700ffb097000fb997009fb99700bf
:1007f0004f06be004f05be004f04be000080fa0049
:10080000000006000100070000000600a4b79f00da
:10081000b5b79f00c6b79f00d7b79f00000006007e
:100820004f09de0082817100b3b79f004f01de00e7
:100830008180400082807000a1b79f008fb0970038
:100840004f09de00000040000200700090b79f00da
:100850007fa897004f01de008180400082807000f9
:1008600081b79f000d0007004f3ade0000004000f6
:1008700004007000f0af9f0008000700040242006f
:1008800085824a0006034b0087834b00dfff070089
:100890000802be000a03be00000006002fb2970047
:1008a000bfb297004fb39700dfb397000000060078
:1008b000881f780018002000881f780089ff070033
:1008c0008f87e9004f04780000000600801feb00ce
:1008d00084ff07008f87e90000000600889fbe00a4
:1008e0008a9fbe00e00f5000e08f5800e00f5900d3
:1008f000e08f59000c003d006044b8006055b8001e
:100900000000540081805c0002015d0083815d0075
:10091000180020001500070008003d00180007001f
:100920000004eb00050037000004eb000f00070097
:1009300002003d001200070018002000dcff070045
:100940000800e000060032006022b8006033b80002
:100950000000520081805a0002015b0083815b002d
:100960004f05be004f04be0000000600e00f52001d
:10097000e08f5a00e00f5b00e08f5b000000060094
:100980006044b8006055b8000402540085825c00e1
:1009900006035d0087835d0000000600889fbe009f
:1009a0008a9fbe008c1f7800e00f5000e08f580037
:1009b000e00f5900e08f59000d003d006044b80081
:1009c0006055b8000000540081805c0002015d00a9
:1009d00083815d001c0020000820e10009a8e100df
:1009e0000ab0e1000bb8e1000d003d00080037003f
:1009f0000006eb00e00f5200e08f5a00e00f5b00b2
:100a0000e08f5b0006003d006044b8006055b80010
:100a10000402540085825c0006035d0087835d004c
:100a2000aaff07000c00e000060032006022b800b8
:100a30006033b8000000520081805a0002015b0060
:100a400083815b004f0678004f05be004f04be0057
:100a500000000600889fbe008a9fbe008c1f7800a1
:100a60000006eb00e00f5000e08f5800e00f590047
:100a7000e08f590007003d006044b8006055b800a1
:100a80000000540081805c0002015d0083815d00f4
:100a90001c002000e00f5200e08f5a00e00f5b00c6
:100aa000e08f5b0007003d006044b8006055b8006f
:100ab0000402540085825c0006035d0087835d00ac
:100ac0000c00a2000c0007000c00e0000600320041
:100ad0006022b8006033b8000000520081805a00e4
:100ae00002015b0083815b004f0678004f05be006a
:100af0004f04be0000000600889fbe008a9fbe0013
:100b00008c9fbe000404b8000506b80089044600a6
:100b100060854e000606b8000a054600e0854e00d6
:100b20000706b8008b054600040eb800890446008d
:100b30000a854e00e0854d00050eb8000a05460006
:100b40008b854e00060eb8008b0546000416b800d3
:100b50000a0546008b854e000516b8008b05460039
:100b6000041eb8008b0546000800be000a01be0046
:100b70004f06be004f05be004f04be000000060039
:020000040000fa
:100b80000000fa007200070095a0a80085a0a90047
:100b900021e3a80030408000e10f50000300320044
:100ba00030408000e60f500003003a0020408000f3
:100bb0000000ea00204088006116800000f82f0045
:100bc000008060006016880030408000e30f500015
:100bd00012003200e30f500005003c00e10f50000e
:100be0000a003200e20f50000a0032001300370002
:100bf000e50f50000d003200e50f500009003500f0
:100c0000e60f50000b0032000c003700cc02a800a9
:100c10000a003700cc22a80008003700cc42a80008
:100c200006003700cc62a80004003700cc82a80080
:100c300002003700cca2a800000000003140800074
:100c4000204080000080400030408800004080004c
:100c500011408000823e200003002000829fbe00e1
:100c6000d607200007002000f43f200005002000e8
:100c70006011b8000e000700e48757004f89de00be
:100c80008201780004902000d50320006033b80072
:100c900070ff0700843e2000050020006033b8008c
:100ca00003ff07000000be0038000700b9ff37004f
:100cb0001000fa00008fbe0022079800330798004a
:100cc0004407980055079800660798007707980032
:100cd0002e009000be0090003e011000ae81180072
:100ce0003eba9700ceba97006e009000fe009000ca
:100cf0000000520081805a00009ab9000402780076
:100d0000028bb90086027800050242000010b8008c
:100d100001024200840078004e029000de02900042
:100d20002e019000be0190000201520083815a0002
:100d300027fe07000001be006e009000fe0090003c
:100d400002004000838048000080fa000000060096
:100d50000000fa00f0df2f0060198800700e2200fa
:100d6000001988002223ef00f0ff210020198800dd
:100d700090002000401988003023ef0000fc2f0075
:0c0d8000401688000080fa000000060009
:020000040000fa
:100d8c00f03fb1000180b10006003500ee03090010
:100d9c0000000000403fb1000180b100fbff3d00ae
:100dac001000b000203fb0000200350000800900a8
:080dbc00000000000000060029
:020000040000fa
:100dc4000008000004000000000000000408000007
:100dd4000400000002000000ffff0100000000000a
:040de400000000000b
:020000040000fa
:020000040001f9
:0457f400fffc0000b6
:020000040000fa
:020000040001f9
:0457f8009f8100008d
:020000040000fa
:020000040001f9
:0457fc007f3f0000eb
:00000001FF
